:060000000A128A11122809
:10000800FE00030E83120313B0000408B1000A08AF
:10001800B2007F08B3000A128A113C2C0A128A1116
:1000280015288313483084005A300A128A11EF25A4
:100038000A128A1183010A128A11B22A831603133B
:10004800A500433083120313C50045088316031324
:10005800A0004529253026060319332834284828C6
:10006800260883120313C50083160313250884008A
:10007800831203134508831380000130C500450827
:1000880083160313A5074529A10101308312031321
:10009800C207FF30420784000A128A1176230A1227
:1000A8008A1183160313A60083120313C500C60121
:1000B8004608003A0319612845294508003A0319FA
:1000C8005A29643A03196C280D3A03196C284529F2
:1000D800831603132008840083130008A300840AEE
:1000E8000008A400023083120313C50045088316D4
:1000F8000313A007A41F812882288F2803308312A6
:100108000313C500450883160313A104A309A40912
:10011800A30A0319A40AA601A60A26088312031330
:10012800C5004507013E84000A128A1176230A1287
:100138008A11C6000A128A1176230A128A11C70088
:100148004708831603132402031DB02883120313E0
:1001580046088316031323020318B328B428B528C6
:10016800C328013083120313C500450883160313FF
:10017800A60705302606031DC228C3289128210892
:1001880003390319C828C928DC282D308312031322
:10019800C50083160313250884008312031345083A
:1001A800831380000130C500450883160313A50793
:1001B800260883120313C500450883160313A200FB
:1001C80038290A3083120313BC000030BD0083169F
:1001D8000313220883120313C5004507013E840058
:1001E8000A128A1176230A128A11B4000A128A1195
:1001F80076230A128A11B500831603132408831282
:100208000313B70083160313230883120313B600DE
:100218000A128A11B2230A128A11831203133508AB
:10022800BF003408BE000A128A117E240A128A11FD
:10023800831203133C08303EC60046088316031396
:10024800A600260883120313C50083160313250886
:100258008400831203134508831380000130C5000E
:10026800450883160313A507FF3083120313C5003F
:10027800450883160313A207220A031D44294529AA
:10028800E52801308312C207FF30420784000A12B2
:100298008A1176230A128A11C500450883160313AA
:1002A800A6002608031D59295A292E288316031348
:1002B8002508840083138001080083120313AB0010
:1002C8002130A3002308A600322A25302C06031962
:1002D8006E296F297B292C08A3002B08840023088A
:1002E800831380000130A3002308AB07322AA7013B
:1002F8000130A007FF30200784000A128A117623F4
:100308000A128A11AC00A300A4012408003A0319B8
:100318008E29322A2308003A0319442A643A031919
:1003280099290D3A03199929322A2608840083133A
:100338000008A900840A0008AA000230A3002308C4
:10034800A607AA1FA829A929B2290330A3002308B0
:10035800A704A909AA09A90A0319AA0AAC01AC0A9F
:100368002C08A3002307013E84000A128A11762371
:100378000A128A11A4000A128A1176230A128A1113
:10038800A50025082A02031DCB29240829020318E1
:10039800CE29CF29D029DA290130A3002308AC07B8
:1003A80005302C06031DD929DA29B4292708033971
:1003B8000319DF29E029EB292D30A3002B0884003D
:1003C8002308831380000130A3002308AB072C08FF
:1003D800A3002308A800292A0A30F8000030F900F1
:1003E8002808A3002307013E84000A128A117623F5
:1003F8000A128A11F0000A128A1176230A128A1147
:10040800F1002A08F3002908F2000A128A11F823D9
:100418000A128A117108FB007008FA000A128A1180
:10042800BA240A128A117808303E83120313A400F2
:100438002408AC002C08A3002B088400230883138D
:1004480080000130A3002308AB07FF30A300230876
:10045800A807280A031D312A322AF0290130A007EB
:10046800FF30200784000A128A1176230A128A11A3
:10047800A3002308AC002C08031D432A442A692939
:100488002B08840083138001080083120313BA0128
:10049800B51F4F2A502A572AB409B509B40A0319B7
:1004A800B50ABA01BA0AB71F5A2A5B2A642AB609DA
:1004B800B709B60A0319B70A0130B8003808BA06EE
:1004C800BB01BC013408350403196B2A6C2AA32A22
:1004D800B901B90A7A2A01300310B40DB50DFF3EEF
:1004E800031D702A0130B8003808B907B51F7D2AE6
:1004F8007E2A6F2A01300310BB0DBC0DFF3E031D81
:100508007F2A35083702031D8B2A34083602031C5C
:100518008E2A8F2A962A3408B6023508031CB70398
:10052800B7023B1401300310B50CB40CFF3E031D99
:10053800972A0130B902031DA22AA32A7E2A3A0863
:100548000319A72AA82AAD2ABB09BC09BB0A0319A3
:10055800BC0A3C08B5003B08B40008000A128A111E
:10056800DB250A128A110A128A11F7250A128A1142
:100578000A128A1186250A128A110A128A11C625B8
:100588000A128A110A128A1110230A128A11831276
:1005980003133D0883160313A700270883120313C8
:1005A800C800193083160313A70027088312031302
:1005B800C200480883160313A800A901280883125B
:1005C8000313C30083160313290883120313C400FB
:1005D8004A300A128A1122200A128A114A308312DA
:1005E8000313B4000030B5000A128A11F4240A1269
:1005F8008A11033083160313A9000830A800763047
:10060800A700A70B052BA80B052BA90B052B000092
:10061800C62A0A128A11122883120313C7018514E5
:10062800053083120313BF00BF0B182B1B2B83123B
:1006380003138510081C212B222B1E2B272B01307E
:10064800BF003F08C70708182A2B2B2B232B470866
:10065800BF00C0013F08B4004008B5001930B6001B
:100668000030B7000A128A115F250A128A11831214
:1006780003133508C2003408C1001D30B40000302F
:10068800B5004208B7004108B6000A128A1149228B
:100698000A128A11831203133508C6003408C500EC
:1006A8000230B4000030B5004608B7004508B6006F
:1006B8000A128A1149220A128A1183120313350871
:1006C800C4003408C3004408BE004308BD00080045
:1006D800FF1B762B83137F1883170008840A0319DE
:1006E800FF0A080003308A000408840A82070034DD
:1006F800013400340A34003464340034E8340334F8
:1007080010342734563461346C346F3472342034E6
:1007180043344E3437343034203425346434003490
:10072800443469347334743461346E3463346934F2
:1007380061343A34203425346434003450344F342E
:100748005434203431343A342034003450344F3463
:100758005434203432343A342034003483120313AE
:10076800BA01BB01340835040319BB2BBC2BF32B8E
:10077800B901B90ACA2B01300310B40DB50DFF3EFB
:10078800031DC02B0130B8003808B907B51FCD2BA1
:10079800CE2BBF2B01300310BA0DBB0DFF3E031D3E
:1007A800CF2B35083702031DDB2B34083602031C18
:1007B800DE2BDF2BE62B3408B6023508031CB70303
:1007C800B7023A1401300310B50CB40CFF3E031DF8
:1007D800E72B0130B902031DF22BF32BCE2B3B087C
:1007E800B5003A08B4000800F501F6017008710474
:1007F8000319FF2B002C372CF701F70A0E2C0130B8
:100808000310F00DF10DFF3E031D042C0130F40020
:100818007408F707F11F112C122C032C0130031058
:10082800F50DF60DFF3E031D132C71087302031D11
:100838001F2C70087202031C222C232C2A2C7008EF
:10084800F2027108031CF303F3027514013003105C
:10085800F10CF00CFF3E031D2B2C0130F702031D99
:10086800362C372C122C7608F1007508F000080099
:100878000C1F3F2C402C4C2C0C1300300A128A11F0
:10088800A9250A128A1183120313AD002D08C90085
:100898008C1E4F2C502C732C63301A06031D552CBC
:1008A800562C702C0B30AD002D08A0004908AE0066
:1008B800AF012E08A1002F08A2004A300A128A119F
:1008C80061210A128A114A30F0000030F1000A1240
:1008D8008A112B250A128A11831203138C123308EA
:1008E800FF0032088A0031088400300E8300FE0EB3
:1008F8007E0E0900831203133C083D040319852C5E
:10090800862CB52CC101C10A942C01300310BC0DF2
:10091800BD0DFF3E031D8A2C0130C0004008C107F1
:10092800BD1F972C982C892C3D083F02031D9E2C37
:100938003C083E02031CA12CA22CA82C3C08BE0299
:100948003D08031CBF03BF0201300310BD0CBC0CE3
:10095800FF3E031DA92C0130C102031DB42CB52C88
:10096800982C3F08BD003E08BC00080078087904B0
:100978000319BF2CC02CEF2CFD01FD0ACE2C013031
:100988000310F80DF90DFF3E031DC42C0130FC00C7
:100998007C08FD07F91FD12CD22CC32C79087B02C7
:1009A800031DD82C78087A02031CDB2CDC2CE22CE3
:1009B8007808FA027908031CFB03FB0201300310D4
:1009C800F90CF80CFF3E031DE32C0130FD02031D5A
:1009D800EE2CEF2CD22C7B08F9007A08F8000800DE
:1009E80083120313B801132D38083407840035081F
:1009F8000318350AFF000A128A116C230A128A1199
:100A080099000130B6003608B8070D308312031379
:100A1800B700FB30B600B60B0F2DB70B0F2D8312A6
:100A2800031338083407840035080318350AFF0013
:100A38000A128A116C230A128A11003A031D252D05
:100A4800262DF82C0D3099000A3099000800F40181
:100A5800472D74087007840071080318710AFF0095
:100A68000A128A116C230A128A1199000130F200C5
:100A78007208F4070D30F300FB30F200F20B422D40
:100A8800F30B422D472D7408700784007108031872
:100A9800710A83120313FF000A128A116C230A12C7
:100AA8008A11003A031D592D5A2D2D2D0D3099000C
:100AB8000A309900080083120313B801B901341CE5
:100AC800662D672D6D2D3608B8070318B90A370843
:100AD800B90701300310B60DB70DFF3E031D6E2D8B
:100AE80001300310B50CB40CFF3E031D752D3408FE
:100AF8003504031D802D812D632D3908B500380874
:100B0800B4000800831203131F139F1783160313DF
:100B18001F129F12C330831203139F0583160313FA
:100B28009F13831203131F140C13831603130C173C
:100B38000B178B17203083120313B400B40BA22DAC
:100B48000000831203139F140800F1002130F00005
:100B5800F00BAC2D7108F000F00DF00D83120313AB
:100B68001F087006C33970069F001E08F000700841
:100B7800F2002130F000F00BBF2D831203139F14F5
:100B880072080800831603139816181283120313A9
:100B980098171816831603138C16831203138C12D6
:100BA8000C30831603139900803087000800013049
:100BB80083160313850086018901FF308800013000
:100BC80083160317880089018312031385018601A0
:100BD80088018901080064008001840A0406031959
:100BE80000340406F02D831603130F168F160F1703
:060BF800E8308B0008004C
:04400E00D420FF3F7C
:00000001FF
