:060000000A128A11122809
:10000800FE00030E83120313B0000408B1000A08AF
:10001800B2007F08B3000A128A11D02B0A128A1183
:1000280015288313483084005A300A128A11832510
:100038000A128A1183010A128A11492A83160313A4
:10004800A500433083120313C50045088316031324
:10005800A0004529253026060319332834284828C6
:10006800260883120313C50083160313250884008A
:10007800831203134508831380000130C500450827
:1000880083160313A5074529A10101308312031321
:10009800C207FF30420784000A128A110A230A1293
:1000A8008A1183160313A60083120313C500C60121
:1000B8004608003A0319612845294508003A0319FA
:1000C8005A29643A03196C280D3A03196C284529F2
:1000D800831603132008840083130008A300840AEE
:1000E8000008A400023083120313C50045088316D4
:1000F8000313A007A41F812882288F2803308312A6
:100108000313C500450883160313A104A309A40912
:10011800A30A0319A40AA601A60A26088312031330
:10012800C5004507013E84000A128A110A230A12F3
:100138008A11C6000A128A110A230A128A11C700F4
:100148004708831603132402031DB02883120313E0
:1001580046088316031323020318B328B428B528C6
:10016800C328013083120313C500450883160313FF
:10017800A60705302606031DC228C3289128210892
:1001880003390319C828C928DC282D308312031322
:10019800C50083160313250884008312031345083A
:1001A800831380000130C500450883160313A50793
:1001B800260883120313C500450883160313A200FB
:1001C80038290A3083120313BC000030BD0083169F
:1001D8000313220883120313C5004507013E840058
:1001E8000A128A110A230A128A11B4000A128A1101
:1001F8000A230A128A11B5008316031324088312EE
:100208000313B70083160313230883120313B600DE
:100218000A128A1146230A128A1183120313350817
:10022800BF003408BE000A128A1112240A128A1169
:10023800831203133C08303EC60046088316031396
:10024800A600260883120313C50083160313250886
:100258008400831203134508831380000130C5000E
:10026800450883160313A507FF3083120313C5003F
:10027800450883160313A207220A031D44294529AA
:10028800E52801308312C207FF30420784000A12B2
:100298008A110A230A128A11C50045088316031316
:1002A800A6002608031D59295A292E288316031348
:1002B8002508840083138001080083120313AB0010
:1002C8002130A3002308A600322A25302C06031962
:1002D8006E296F297B292C08A3002B08840023088A
:1002E800831380000130A3002308AB07322AA7013B
:1002F8000130A007FF30200784000A128A110A2360
:100308000A128A11AC00A300A4012408003A0319B8
:100318008E29322A2308003A0319442A643A031919
:1003280099290D3A03199929322A2608840083133A
:100338000008A900840A0008AA000230A3002308C4
:10034800A607AA1FA829A929B2290330A3002308B0
:10035800A704A909AA09A90A0319AA0AAC01AC0A9F
:100368002C08A3002307013E84000A128A110A23DD
:100378000A128A11A4000A128A110A230A128A117F
:10038800A50025082A02031DCB29240829020318E1
:10039800CE29CF29D029DA290130A3002308AC07B8
:1003A80005302C06031DD929DA29B4292708033971
:1003B8000319DF29E029EB292D30A3002B0884003D
:1003C8002308831380000130A3002308AB072C08FF
:1003D800A3002308A800292A0A30F8000030F900F1
:1003E8002808A3002307013E84000A128A110A2361
:1003F8000A128A11F0000A128A110A230A128A11B3
:10040800F1002A08F3002908F2000A128A118C2345
:100418000A128A117108FB007008FA000A128A1180
:100428004E240A128A117808303E83120313A4005E
:100438002408AC002C08A3002B088400230883138D
:1004480080000130A3002308AB07FF30A300230876
:10045800A807280A031D312A322AF0290130A007EB
:10046800FF30200784000A128A110A230A128A110F
:10047800A3002308AC002C08031D432A442A692939
:100488002B0884008313800108000A128A116F2543
:100498000A128A110A128A118B250A128A110A1263
:1004A8008A111A250A128A110A128A115A250A1261
:1004B8008A110A128A11A4220A128A1183160313B6
:1004C800A700270883120313C800193083160313E3
:1004D800A700270883120313C200480883160313D2
:1004E800A800A901280883120313C3008316031365
:1004F800290883120313C4004A300A128A112220E1
:100508000A128A114A3083120313B4000030B5006E
:100518000A128A1188240A128A11033083160313D7
:10052800A9000830A8007630A700A70B992AA80BC5
:10053800992AA90B992A00005D2A0A128A11122801
:1005480083120313C2018514053083120313BC0000
:10055800BC0BAC2AAF2A831203138510081CB52ADA
:10056800B62AB22ABB2A0130BC003C08C2070818C8
:10057800BE2ABF2AB72A4208BC00BD013C08B40005
:100588003D08B5001B30B6000030B7000A128A11CA
:10059800F3240A128A11831203133508BF003408A2
:1005A800BE001D30B4000030B5003F08B7003E085B
:1005B800B6000A128A1146230A128A1183120313FB
:1005C8003408BC003508BD000310BD0CBC0C3C0849
:0A05D800C0003D08C1004008080003
:10060000FF1B0A2B83137F1883170008840A031922
:10061000FF0A080003308A000408840A82070034B5
:10062000013400340A34003464340034E8340334D0
:1006300010342734563461346C346F3472342034BF
:1006400043344E3437343034203425346434003469
:10065000443469347334743461346E3463346934CB
:1006600061343A34203425346434003450344F3407
:100670005434203431343A342034003450344F343C
:100680005434203432343A34203400348312031387
:10069000BA01BB013408350403194F2B502B872BAB
:1006A000B901B90A5E2B01300310B40DB50DFF3E40
:1006B000031D542B0130B8003808B907B51F612B52
:1006C000622B532B01300310BA0DBB0DFF3E031DEF
:1006D000632B35083702031D6F2B34083602031CC9
:1006E000722B732B7A2B3408B6023508031CB70320
:1006F000B7023A1401300310B50CB40CFF3E031DD1
:100700007B2B0130B902031D862B872B622B3B0804
:10071000B5003A08B4000800F501F601700871044C
:100720000319932B942BCB2BF701F70AA22B013043
:100730000310F00DF10DFF3E031D982B0130F40066
:100740007408F707F11FA52BA62B972B0130031078
:10075000F50DF60DFF3E031DA72B71087302031D57
:10076000B32B70087202031CB62BB72BBE2B70087C
:10077000F2027108031CF303F30275140130031035
:10078000F10CF00CFF3E031DBF2B0130F702031DDF
:10079000CA2BCB2BA62B7608F1007508F0000800B9
:1007A0000C1FD32BD42BE02B0C1300300A128A1110
:1007B0003D250A128A1183120313AD002D08C900CA
:1007C0008C1EE32BE42B072C63301A06031DE92B48
:1007D000EA2B042C0B30AD002D08A0004908AE0018
:1007E000AF012E08A1002F08A2004A300A128A1178
:1007F00061210A128A114A30F0000030F1000A1219
:100800008A11BF240A128A11831203138C1233082F
:10081000FF0032088A0031088400300E8300FE0E8B
:100820007E0E0900831203133C083D040319192CA2
:100830001A2C492CC101C10A282C01300310BC0D0F
:10084000BD0DFF3E031D1E2C0130C0004008C10736
:10085000BD1F2B2C2C2C1D2C3D083F02031D322CC0
:100860003C083E02031C352C362C3C2C3C08BE02B6
:100870003D08031CBF03BF0201300310BD0CBC0CBC
:10088000FF3E031D3D2C0130C102031D482C492CA5
:100890002C2C3F08BD003E08BC00080078087904F5
:1008A0000319532C542C832CFD01FD0A622C0130BA
:1008B0000310F80DF90DFF3E031D582C0130FC000C
:1008C0007C08FD07F91F652C662C572C79087B02E4
:1008D000031D6C2C78087A02031C6F2C702C762C6C
:1008E0007808FA027908031CFB03FB0201300310AD
:1008F000F90CF80CFF3E031D772C0130FD02031D9F
:10090000822C832C662C7B08F9007A08F8000800FA
:1009100083120313B801A72C380834078400350864
:100920000318350AFF000A128A1100230A128A11DD
:1009300099000130B6003608B8070D308312031352
:10094000B700FB30B600B60BA32CB70BA32C831259
:10095000031338083407840035080318350AFF00EC
:100960000A128A1100230A128A11003A031DB92CB7
:10097000BA2C8C2C0D3099000A3099000800F40133
:10098000DB2C74087007840071080318710AFF00DB
:100990000A128A1100230A128A1199000130F2000A
:1009A0007208F4070D30F300FB30F200F20BD62C86
:1009B000F30BD62CDB2C7408700784007108031825
:1009C000710A83120313FF000A128A1100230A120C
:1009D0008A11003A031DED2CEE2CC12C0D3099002C
:1009E0000A309900080083120313B801B901341CBE
:1009F000FA2CFB2C012D3608B8070318B90A370862
:100A0000B90701300310B60DB70DFF3E031D022DCF
:100A100001300310B50CB40CFF3E031D092D340842
:100A20003504031D142D152DF72C3908B500380891
:100A3000B4000800831203131F139F1783160313B8
:100A40001F129F12C330831203139F0583160313D3
:100A50009F13831203131F140C13831603130C1715
:100A60000B178B17203083120313B400B40B362DF1
:100A70000000831203139F140800F1002130F000DE
:100A8000F00B402D7108F000F00DF00D83120313F0
:100A90001F087006C33970069F001E08F00070081A
:100AA000F2002130F000F00B532D831203139F143A
:100AB0007208080083160313981618128312031382
:100AC00098171816831603138C16831203138C12AF
:100AD0000C30831603139900803087000800013022
:100AE00083160313850086018901FF3088000130D9
:100AF0008316031788008901831203138501860179
:100B000088018901080064008001840A0406031931
:100B100000340406842D831603130F168F160F1747
:060B2000E8308B00080024
:04400E00D420FF3F7C
:00000001FF
