:060000000A128A110C280F
:10000800FE00030EFA000A08FB000A128A113129C1
:100018000A128A110F280A128A1137230A128A1122
:10002800C8000A128A1138230A128A11C9000A1252
:100038008A1139230A128A11CA00831320308400D6
:1000480035300A128A1127230A128A11F001F101A8
:10005800F201F301F401F50183010A128A1134282F
:100068000A128A1116230A128A110A128A112F23D8
:100078000A128A110A128A119C220A128A11FE3067
:100088000A128A11DC220A128A110D308312031314
:10009800C600FB30C500C50B4F28C60B4F283830AB
:1000A8007402031C582859288B28463074020318F8
:1000B8005E285F288B28C8307202031C64286528D4
:1000C8008B28831203134908031D6B286C288B287F
:1000D8004803031D702871288B28B401B40AB301A2
:1000E800B201B20AF301F30A8616C8015E30831220
:1000F8000313C6007F30C500C50B8028C60B8028B7
:10010800852883120313061B8A288B2885288312C7
:1001180003134903031D91289228AB28B301B30A9E
:10012800B401B40AB201B20A8616C8015E3083125D
:100138000313C6007F30C500C50BA028C60BA02836
:10014800A52883120313061BAA28AB28A528300369
:10015800031DAF28B028C8281A3083120313C7001C
:100168005E30C6006D30C500C50BB828C60BB82870
:10017800C70BB828BF2883120313B301B30AB4010D
:10018800B40AB201B20AB0013403031DCC28CD2849
:100198001C290A128A11D6210A128A118312031302
:1001A800C5004508F000063070020318DC28DD2879
:1001B800E8283308031DE128E228E828B201B40141
:1001C800B001B00AF301FA2810307002031CED28C0
:1001D800EE28FA283303031DF228F328FA28B2017F
:1001E800C901B401B0018612C801C80A3303031D4E
:1001F800FE28FF280A293203031D032904290A2996
:100208000619072908290A2986141C293308031DF9
:100218000E290F291A293203031D132914291A2913
:100228008618172918291A2906151C298610061157
:1002380008308606033083120313C7000830C6004F
:100248007630C500C50B2629C60B2629C70B2629DB
:10025800000053280A128A110C28831203130C1F5A
:10026800362937295D290C1300300A128A11BF225A
:100278000A128A11F9007908F40038307402031C54
:10028800462947295C294630740203184C294D2910
:100298005C290130F9007908F207FE307206031D67
:1002A800562957295D29FD30F9007908F2005D29A2
:1002B800F201831203138C1D62296329CF291412BA
:1002C800141B672968296C29941F6B296C297329C9
:1002D8001308F9007908B10014139413141683163F
:1002E8000313941A78297929912914197C297D29CD
:1002F8009129831203131308F9007908B1008C11AE
:10030800141683160313141C8A298B298529A630F1
:10031800F900F90B8D290000CC29941A9429952904
:10032800CC29141D98299929CC2983120313130861
:10033800F9007908B1008316031314107108031D1E
:10034800A629A729AE29F101F10A7008831203131F
:100358009300B329F1017308831203139300031068
:10036800061E03140318B929BD29831203130616A0
:10037800C0298312031306121416A630F900F90BCC
:10038800C3290000831603131418CB29CC29C629C6
:10039800831203138C117B088A007A0E8300FE0EE9
:1003A8007E0E090083120313C301C40185140530AE
:1003B80083120313BD00BD0BDF29E2298312031347
:1003C8008510081CE829E929E529F0290130C30727
:1003D8000318C40A0030C4070818F329F429EA29C5
:1003E8004408B6004308B5001B30B7000030B80019
:1003F8000A128A1175220A128A1183120313360807
:10040800BF003508BE001D30B5000030B6003F08FB
:10041800B8003E08B7000A128A112F220A128A1160
:10042800831203133608C1003508C0000A30B5002E
:100438000030B6004108B8004008B7000A128A1117
:100448002F220A128A11831203133508BD003D08B2
:10045800C2004208080083120313BB01BC0135081F
:1004680036040319382A392A702ABA01BA0A472ADF
:1004780001300310B50DB60DFF3E031D3D2A0130B6
:10048800B9003908BA07B61F4A2A4B2A3C2A013054
:100498000310BB0DBC0DFF3E031D4C2A3608380265
:1004A800031D582A35083702031C5B2A5C2A632A75
:1004B8003508B7023608031CB803B8023B140130EC
:1004C8000310B60CB50CFF3E031D642A0130BA02B6
:1004D800031D6F2A702A4B2A3C08B6003B08B5005A
:1004E800080083120313B901BA01351C7C2A7D2A3E
:1004F800832A3708B9070318BA0A3808BA07013037
:100508000310B70DB80DFF3E031D842A01300310F8
:10051800B60CB50CFF3E031D8B2A35083604031DA7
:10052800962A972A792A3A08B6003908B5000800A9
:10053800831203131F139F17831603131F129F128F
:10054800C330831203139F05831603139F1383126B
:1005580003131F140C13831603130C170B178B1795
:10056800203083120313B500B50BB82A000083129C
:1005780003139F140800F7002130F600F60BC22A77
:100588007708F600F60DF60D831203131F0876069A
:10059800C33976069F001E08F6007608F800213059
:1005A800F600F60BD52A831203139F147808080067
:1005B80083120313B50035088316031393003630EE
:1005C80083120313940080308316031394000130C0
:1005D8009100871507168B170B17831203138C11BD
:0805E800831603138C150800B3
:1006000003308A000408840A8207003450344F34CF
:100610005434203431343A342034003450344F349C
:100620005434203432343A342034003401308316C8
:1006300003138500403086008814013083160317A9
:100640008800890183120313860188010800640071
:100650008001840A0406031900340406282B83163B
:1006600003130F168F160F17E8308B0008000134A4
:0406700001343234EB
:04400E00D420FF3F7C
:00000001FF
