:100000000A128A11EA2F0A128A1561210A128A112C
:100010008316031311150800F20083120313091449
:1000200072080A128A15DB220A128A11831203133C
:100030008914C730F1001C28F10B1B281F28202829
:1000400083120313891008008312031341088039B7
:10005000C2004208CB004108C2004207C300430867
:10006000D200C01F342835283628521452080319EC
:100070003A283B284B28520A031D3F28402848288D
:100080000030C1000030C0000030BF000030BE00B2
:10009000C017C10153280030C1000030C00000303B
:1000A000BF000030BE003D088039C2004208CB06C8
:1000B0003D08C2004207C3004308D300BC1F6128AB
:1000C000622863285314530803196728682878287E
:1000D000530A031D6C286D2875280030BD000030C0
:1000E000BC000030BB000030BA00BC17BD01802846
:1000F0000030BD000030BC000030BB000030BA0052
:100100003D083C043B043A04031D87288828A128A5
:100110000030C1000030C0000030BF000030BE0021
:100120008030C0047F30C1044B08C2004208C104C3
:100130004108BD004008BC003F08BB003E08BA00B3
:10014000002A5208031DA528A628AF280030BD00AC
:100150000030BC000030BB000030BA00002A52085A
:10016000C200C3014308C50053084202C400031C77
:10017000C50344087F3ECC0045080318013E003EFD
:10018000CD004108CA004008C9003F08C8003E0829
:10019000C7000030C1000030C0000030BF00003098
:1001A000BE000030D1000030D0000030CF00003061
:1001B000CE00D301252953080319DF28E0280029A0
:1001C0000130C2000310C70DC80DC90DCA0DC20B06
:1001D000E2280130C2000310BE0DBF0DC00DC10DDD
:1001E000C20BEB28D11FF528F628F7283E14013062
:1001F000C2000310CE0DCF0DD00DD10DC20BF928CA
:100200003D084A02031D0E293C084902031D0E2920
:100210003B084802031D0E293A084702031C112916
:100220001229212951173A08C7023B08031C3B0F2A
:10023000C8023C08031C3C0FC9023D08031C3D0FCB
:10024000CA020130C2004208D3071A305302031C0D
:100250002A292B29DB284A084904480447040319A2
:100260003229332952294E1452290130C200031079
:10027000BE0DBF0DC00DC10DC20B3729D11F4129C5
:10028000422943293E140130C2000310CE0DCF0D88
:10029000D00DD10DC20B4529FF30CC070318CD0A74
:1002A000FF30CD07C01F552956293529D301D11F4D
:1002B0005A295B297729FF304E05C200FF304F05D0
:1002C000C300FF305005C4007F305105C50045080C
:1002D00044044304420403196E296F297229D3018F
:1002E000D30A77293E1C7529762977296F29530867
:1002F00003197B297C29AD290130BE070030031882
:100300000130BF07003003180130C0070030031868
:100310000130C107411C8D298E29AD293E08C2003C
:100320003F08C3004008C4004108C5000130C600B2
:10033000450DC50CC40CC30CC20CC60B982945084E
:10034000C1004408C0004308BF004208BE0001309D
:10035000CC070318CD0A0030CD074D08803AFF00C6
:1003600080307F02031DB629FF304C02031CB929DF
:10037000BA29C829FF3083120313CC000030CD0006
:100380000030C1000030C0000030BF000030BE00AF
:10039000831203134D08803AFF0080307F02031D53
:1003A000D32901304C020318D629D729E429831216
:1003B0000313CC01CD010030C1000030C00000307B
:1003C000BF000030BE00CB01831203134C08C200F3
:1003D0004208D200521CED29EE29F029C017F42959
:1003E0007F30C2004208C0055208C2000310420C10
:1003F000C3004308C1004B08C2004208C10498284A
:1004000008008312031357088039DC005C08E400FD
:100410005708DC005C07DD005D08E600D61F112AE6
:10042000122A132A661466080319172A182A282A7A
:10043000660A031D1C2A1D2A252A0030D700003019
:10044000D6000030D5000030D400D617D701302AAE
:100450000030D7000030D6000030D5000030D40086
:100460005B088039DC005C08E50065086406031958
:100470003A2A3B2A3C2A64175B08DC005C07DD0053
:100480005D08E500DA1F452A462A472A65146508F3
:1004900003194B2A4C2A5C2A650A031D502A512A4B
:1004A000592A0030DB000030DA000030D90000307B
:1004B000D800DA17DB01642A0030DB000030DA00F4
:1004C0000030D9000030D800660865020318692A98
:1004D0006A2AAE2A641F6D2A6E2A722A8030DC00D6
:1004E0005C08E4066608DC005C08E7006508DC00E0
:1004F0005C08E6006708DC005C08E5005408DC00E6
:100500005C08E7005808DC005C08D4006708DC00E1
:100510005C08D8005508DC005C08E7005908DC00DE
:100520005C08D5006708DC005C08D9005608DC00D0
:100530005C08E7005A08DC005C08D6006708DC00AD
:100540005C08DA005708DC005C08E7005B08DC00A8
:100550005C08D7006708DC005C08DB00E701650881
:10056000DC00DD015D08DF0066085C02DE00031CC4
:10057000DF035F08803AFF0080307F02031DC22A3C
:100580001A305E02031CC52AC62A032B83120313EA
:100590005708560455045404031DCF2AD12A0130AC
:1005A000D22A0030DC005C08E7000030D7000030C1
:1005B000D6000030D5000030D4006508DC005C08AF
:1005C000E6000B2B671CE52AE62AEF2A6708DC0009
:1005D00003105C0C0138DD005D08E700F12A031010
:1005E000E70C541CF42AF52AF62AE7170130DC0040
:1005F000570DD70CD60CD50CD40CDC0BF82A0130D7
:10060000DC005C08E6078312031365086602031C1E
:100610000A2B0B2BE22A641B0E2B0F2B5A2B66087E
:10062000031D132B142B1D2B0030D7000030D600D8
:100630000030D5000030D400882C5808D407590861
:1006400003110318013E0319262BD5075A0803117D
:100650000318013E03192D2BD6075B08031103185D
:10066000013E0319342BD707571C372B382B0E2C80
:10067000671C3B2B3C2B452B6708DC0003105C0CF4
:100680000138DD005D08E700472B0310E70C541C20
:100690004A2B4B2B4C2BE7170130DC00570DD70CA6
:1006A000D60CD50CD40CDC0B4E2B0130DC005C08D6
:1006B000E6070E2C5708803AFF005B08803A7F025D
:1006C000031D6C2B5A085602031D6C2B590855024A
:1006D000031D6C2B5808540203186F2B702BC82B6A
:1006E000FF30DC00FF30DD00FF30DE00FF30DF00D8
:1006F0005808E0005908E1005A08E2005B08E300EE
:100700005408E0025508031C550F872B882BE10283
:100710005608031C560F8D2B8E2BE2025708031C24
:10072000570F932B942BE3026008DC076108031832
:10073000610F9B2B9C2BDD0762080318620FA12B16
:10074000A22BDE0763080318630ADF075F08D700E0
:100750005E08D6005D08D5005C08D4008030DC005F
:100760005C08E406E709E70A6708031DB82BB92B04
:10077000D62B0130D407003003180130D5070030E4
:1007800003180130D607003003180130D707D62BE5
:100790005808D4025908031C590FD5025A08031CE3
:1007A0005A0FD6025B08031C5B0FD702570856048A
:1007B00055045404031DDD2BDE2B0A2C6708031D92
:1007C000E22BE32B0A2C0030D7000030D60000309B
:1007D000D5000030D400882C0130DC000310D40D8B
:1007E000D50DD60DD70DDC0BEE2BE71FF82BF92B13
:1007F000FA2B5414671CFD2BFE2B012C0314E70D60
:10080000032C0310E70D66080319072C082C0A2C8B
:100810000130E602D61F0D2C0E2CEC2BE501E71F54
:10082000122C132C212C67087F390319182C192C32
:100830001C2CE501E50A212C541C1F2C202C212CFA
:10084000192C65080319252C262C5A2C0130D407A5
:10085000003003180130D507003003180130D607E7
:10086000003003180130D707571C372C382C5A2C6E
:100870005408DC005508DD005608DE005708DF008C
:100880000130E0005F0DDF0CDE0CDD0CDC0CE00B5A
:10089000422C5F08D7005E08D6005D08D5005C08D2
:1008A000D400660A0319552C562C5A2C0130DC0052
:1008B0005C08E607660A03195E2C5F2C642C660848
:1008C000031D632C642C722C0030D7000030D6003E
:1008D0000030D5000030D4006608031D702C712C48
:1008E000722CE401661C752C762C782CD6177C2C87
:1008F0007F30DC005C08D6056608DC0003105C0C69
:10090000DD005D08D700E41F862C872C882CD717C4
:1009100008008312031323088039A8002808AD00BB
:100920002308A8002807A9002908B300A21F992CB2
:100930009A2C9B2C3314330803199F2CA02CAF2C1A
:10094000330A031DA42CA52CAD2C0030A3000030CD
:10095000A2000030A1000030A000A217B72C003088
:10096000A3000030A2000030A1000030A000270842
:100970008039A8002808AD062708A8002807A90084
:100980002908B200A61FC52CC62CC72C3214320869
:100990000319CB2CCC2CDB2C320A031DD02CD12CF0
:1009A000D92C0030A7000030A6000030A500003090
:1009B000A400A617E32C0030A7000030A6000030EA
:1009C000A5000030A40032080319E72CE82CED2C18
:1009D0003308031DEC2CED2CF62C0030A300003066
:1009E000A2000030A1000030A000E92F2008A800DC
:1009F0002808F00026080A128A1502220A128A1113
:100A0000710883120313B9007008B8003808A800F1
:100A1000A901AA01AB012B08B1002A08B0002908DE
:100A2000AF002808AE003908A800A901AA01AB014F
:100A30002B08B7002A08B6002908B5002808B4001A
:100A40002108A8002808F00025080A128A150222A9
:100A50000A128A11710883120313B9007008B800D2
:100A60003808A800A901AA01AB012808AE07290887
:100A700003110318013E03193E2DAF072A08031185
:100A80000318013E0319452DB0072B080311031865
:100A9000013E03194C2DB1073908A800A901AA018C
:100AA000AB012808B407290803110318013E0319F4
:100AB0005A2DB5072A0803110318013E0319612DA9
:100AC000B6072B0803110318013E0319682DB70759
:100AD0002208A8002808F00024080A128A15022219
:100AE0000A128A11710883120313B9007008B80042
:100AF0003808A800A901AA01AB012808AE072908F7
:100B000003110318013E0319862DAF072A080311AC
:100B10000318013E03198D2DB0072B08031103188C
:100B2000013E0319942DB1073908A800A901AA01B3
:100B3000AB012808B407290803110318013E031963
:100B4000A22DB5072A0803110318013E0319A92D88
:100B5000B6072B0803110318013E0319B02DB70780
:100B60000830A8000310AE0DAF0DB00DB10DA80BED
:100B7000B22D2108A8002808F00024080A128A15BE
:100B800002220A128A11710883120313B900700835
:100B9000B8003808A8003908A900AA01AB01280844
:100BA000AE07290803110318013E0319D82DAF071A
:100BB0002A0803110318013E0319DF2DB0072B0883
:100BC00003110318013E0319E62DB1072008A80000
:100BD0002808F00025080A128A1502220A128A1132
:100BE000710883120313B9007008B8003808A80010
:100BF0003908A900AA01AB012808AE07290803118A
:100C00000318013E0319052EAF072A080311031824
:100C1000013E03190C2EB0072B0803110318013EE7
:100C20000319132EB1070830A8000310AE0DAF0D45
:100C3000B00DB10DA80B152E2008A8002808F00053
:100C400024080A128A1502220A128A1171088312D4
:100C50000313B9007008B8003808A8003908A900C3
:100C6000AA01AB012808AE07290803110318013EA9
:100C700003193B2EAF072A0803110318013E03197D
:100C8000422EB0072B0803110318013E0319492E09
:100C9000B1072108A8002808F00026080A128A15C2
:100CA00002220A128A11710883120313B900700814
:100CB000B8003808A8003908A900AA01AB01280823
:100CC000B407290803110318013E0319682EB5075C
:100CD0002A0803110318013E03196F2EB6072B08CB
:100CE00003110318013E0319762EB7072208A80046
:100CF0002808F00025080A128A1502220A128A1111
:100D0000710883120313B9007008B8003808A800EE
:100D10003908A900AA01AB012808B4072908031162
:100D20000318013E0319952EB5072A08031103186D
:100D3000013E03199C2EB6072B0803110318013E30
:100D40000319A32EB7072208A8002808F0002608D8
:100D50000A128A1502220A128A11710883120313D9
:100D6000B9007008B8003808A8003908A900AA011D
:100D7000AB0108300310A80DA90DAA0DAB0DFF3E65
:100D8000031DBA2E2808B407290803110318013ED1
:100D90000319CB2EB5072A0803110318013E0319C6
:100DA000D22EB6072B0803110318013E0319D92EC2
:100DB000B7072E08A8002F08A9003008AA0031089C
:100DC000AB0018300310AB0CAA0CA90CA80CFF3E0A
:100DD000031DE22E2808B407290803110318013E59
:100DE0000319F32EB5072A0803110318013E03194E
:100DF000FA2EB6072B0803110318013E0319012F21
:100E0000B7070830A8000310AE0DAF0DB00DB10D3F
:100E1000A80B032F33083207A800A901A90D280841
:100E2000823EB80029080318013EFF3EB900352F65
:100E30000130A8000310B40DB50DB60DB70DA80B09
:100E40001A2FB11F242F252F262F34140130A8006C
:100E50000310AE0DAF0DB00DB10DA80B282FFF3054
:100E6000B8070318B90AFF30B907B61F382F392F52
:100E7000182FB201B11F3D2F3E2F5A2FFF302E05E4
:100E8000A800FF302F05A900FF303005AA007F30F1
:100E90003105AB002B082A04290428040319512F1B
:100EA000522F552FB201B20A5A2F341C582F592FE6
:100EB0005A2F522F320803195E2F5F2F902F0130C7
:100EC000B407003003180130B507003003180130B3
:100ED000B607003003180130B707371C702F712F89
:100EE000902F3408A8003508A9003608AA00370852
:100EF000AB000130AC002B0DAB0CAA0CA90CA80C5C
:100F0000AC0B7B2F2B08B7002A08B6002908B500C8
:100F10002808B4000130B8070318B90A0030B9072F
:100F20003908803AFF0080307F02031D992FFF307F
:100F30003802031C9C2F9D2FA82F7F308312031390
:100F4000B7008030B6000030B5000030B400DD2FAF
:100F5000831203133908803AFF0080307F02031D9B
:100F6000B32F013038020318B62FB72FC32F00302C
:100F700083120313B7000030B6000030B500003014
:100F8000B400AD01DD2F831203133808A800280830
:100F9000B300FF30B405FF30B5057F30B605003033
:100FA000B705331CD42FD52FD62FB6173308A8007A
:100FB0000310280CA9002908B7002D08A80028084C
:100FC000B7043708A3003608A2003508A10034088A
:100FD000A000080083120313EB01EC01ED01EE0108
:100FE00083160313A001A101A201A301A401A5017D
:100FF000A601A701A801A90183010A128A15322EB0
:1010000008308A000408840A8207003453343134DB
:101010003A34203420342034533432343A342034B7
:10102000203420342034533433343A3400345034B0
:101030004F345434203431343A3420340034503472
:101040004F345434203432343A34203400342E3483
:0210500000346A
:10127A00831603130F168F160F17E8308B0008001A
:10128A000A128A1561210A128A1583160313911408
:10129A0008000A128A1561210A128A158316031395
:1012AA00111408000A128A1561210A128A15700897
:1012BA008312031393000800831603131419662973
:1012CA006729612911081F39031D6C296D296129B4
:1012DA000800831603138501860189018801831694
:1012EA000317880189018312031385018601880186
:1012FA0089010800F20083120313091072080A1206
:10130A008A15DB220A128A15831203138914C7303D
:10131A00F1008F29F10B8E29922993298312031345
:10132A0089100800F500F401AB29740875078400D8
:10133A000A128A1500200A128A150A128A110C202A
:10134A000A128A150130F3007308F4077408750746
:10135A0084000A128A1500200A128A15003A031D0F
:10136A00B729B8299A290800F5007503031DBE2973
:10137A00BF29CB2973087F3EF4007408F60076086B
:10138A000A128A157F210A128A15DC29023075068B
:10139A00031DD029D129DC297308BF3EF400740843
:1013AA00F60076080A128A157F210A128A150800A1
:1013BA00F401F501701CE229E329E9297208F4070E
:1013CA000318F50A7308F50701300310F20DF30D3F
:1013DA00FF3E031DEA2901300310F10CF00CFF3E19
:1013EA00031DF12970087104031DFC29FD29DF2959
:1013FA007508F1007408F0000800F800F401F5011E
:10140A007008F200F3017208F6007308F700781CFE
:10141A000F2A102A162A7608F4070318F50A7708FD
:10142A00F50701300310F60DF70DFF3E031D172ACD
:10143A000310F80C7808031D232A242A0C2A75089D
:10144A00F1007408F00008000A128A1561210A12D4
:10145A008A158316031391150A128A1561210A1235
:10146A008A15831203131308F200F3017208F400B9
:10147A007308F5000A128A1561210A128A15700387
:10148A007104031D492A4A2A4E2A8316031391120C
:10149A00512A83160313911611167508F100740860
:1014AA00F0000800283083120313940083160313F4
:1014BA009101831203132008A4002108A500220821
:1014CA00A6002308A70002300310A40DA50DA60D3F
:1014DA00A70DFF3E031D692A2708F3002608F2001C
:1014EA002508F1002408F0000030F7007A30F600F1
:1014FA001230F5000030F4000A128A152D230A1260
:10150A008A157008FF3E831603139300940187150A
:10151A000716080000300A128A15DB220A128A15F9
:10152A003430F400F130F300F30B992AF40B992AC2
:10153A009E2A38300A128A157F210A128A153430F7
:10154A00F400F130F300F30BA82AF40BA82AAD2A11
:10155A000C300A128A157F210A128A153430F400D7
:10156A00F130F300F30BB72AF40BB72ABC2A013087
:10157A000A128A157F210A128A1538300A128A1528
:10158A007F210A128A1508300A128A157F210A1247
:10159A008A1501300A128A157F210A128A15063025
:1015AA000A128A157F210A128A150800F00070189B
:1015BA00DF2AE32A831203130514E62A831203138C
:1015CA000510F018E92AED2A831203138514F02A6C
:1015DA008312031385107019F32AF72A831203134F
:1015EA000515FA2A831203130511F019FD2A012B96
:1015FA00831203138515042B831203138511701AA2
:10160A00072B0B2B8312031305160E2B83120313BE
:10161A000512F01A112B152B831203138516182B9A
:10162A00831203138512701B1B2B1F2B83120313A8
:10163A000517222B831203130513F01B252B292BC5
:10164A008312031385172C2B8312031385130800A7
:10165A000030FC000030FB000030FA000030F900D6
:10166A00730872047104700403193C2B3D2B8A2BF6
:10167A00FD01FD0A4D2B0130F8000310F00DF10DAC
:10168A00F20DF30DF80B422B0130F8007808FD0734
:10169A00F31F502B512B402B0130F8000310F90D8A
:1016AA00FA0DFB0DFC0DF80B532B73087702031D83
:1016BA00682B72087602031D682B71087502031DD8
:1016CA00682B70087402031C6B2B6C2B7B2B700825
:1016DA00F4027108031C710FF5027208031C720FE1
:1016EA00F6027308031C730FF70279140130031012
:1016FA00F30CF20CF10CF00CFF3E031D7C2B0130B5
:10170A00FD02031D892B8A2B512B7C08F3007B08D1
:10171A00F2007A08F1007908F0000800F601F11FDA
:10172A00972B982B9F2BF009F109F00A0319F10A5C
:10173A00F601F60AF31FA22BA32BAC2BF209F3092D
:10174A00F20A0319F30A0130F4007408F606F701E5
:10175A00F801700871040319B32BB42BEB2BF501B4
:10176A00F50AC22B01300310F00DF10DFF3E031DE7
:10177A00B82B0130F4007408F507F11FC52BC62BEE
:10178A00B72B01300310F70DF80DFF3E031DC72BD1
:10179A0071087302031DD32B70087202031CD62B27
:1017AA00D72BDE2B7008F2027108031CF303F30235
:1017BA00771401300310F10CF00CFF3E031DDF2BF0
:1017CA000130F502031DEA2BEB2BC62B7608031911
:1017DA00EF2BF02BF52BF709F809F70A0319F80A8A
:1017EA007808F1007708F000080083120313A800B4
:1017FA006430F0000030F1002808F900FA01790895
:10180A00F2007A08F3000A128A1593230A128A153B
:10181A00710883120313A7007008A6002708F100B5
:10182A002608F0009C30F200FF30F3000A128A15F5
:10183A00DD210A128A158312031328087007A200F1
:10184A0071080318710AA3000A30F0000030F10091
:10185A002308F3002208F2000A128A1593230A12B7
:10186A008A15710883120313A5007008A4002508BD
:10187A00F1002408F000F630F200FF30F3000A12FB
:10188A008A15DD210A128A158312031322087007AA
:10189A00A00023080318230A7107A1002708F400EF
:1018AA002608F3000A128A15ED240A128A158312F1
:1018BA0003132508F4002408F3000A128A15ED24FC
:1018CA000A128A15831203132108F4002008F30070
:1018DA000A128A15ED240A128A1508000310720DDD
:1018EA00730DF4007408FA007A08031D7D2C7E2C0F
:1018FA00872C0030F3000030F2000030F100003095
:10190A00F000EC2C7008F4007108F5007208F6007B
:10191A007308F7001F300310F70CF60CF50CF40CE3
:10192A00FF3E031D902C7408F8007808F900F2179E
:10193A00FF30F005FF30F105FF30F2050030F30506
:10194A009630FA02FA1FAA2CAB2CC52C7A08803AD8
:10195A00973E0318B12CB22CB32C7E2C0130031005
:10196A00F30CF20CF10CF00CFF3E031DB42C013009
:10197A00F4007408FA07031DC32CC42CB32CDC2C06
:10198A0020307A02031CCA2CCB2CD72C7E2C013097
:10199A00F4000310F00DF10DF20DF30DF40BCE2C43
:1019AA000130FA027A08031DDB2CDC2CCC2C7908D6
:1019BA000319E02CE12CEC2CF009F109F209F309E6
:1019CA00F00A0319F10A0319F20A0319F30A0800C3
:1019DA0073037404031DF22CF32CFA2C31300A120F
:1019EA008A110C200A128A15772D023073067404A4
:1019FA00031D002D012D082D32300A128A110C20E8
:101A0A000A128A15772D033073067404031D0E2DEE
:101A1A000F2D162D33300A128A110C200A128A153C
:101A2A00772D043073067404031D1C2D1D2D242DDF
:101A3A0034300A128A110C200A128A15772D0530C1
:101A4A0073067404031D2A2D2B2D322D35300A12EC
:101A5A008A110C200A128A15772D0630730674042F
:101A6A00031D382D392D402D36300A128A110C20CB
:101A7A000A128A15772D073073067404031D462D42
:101A8A00472D4E2D37300A128A110C200A128A1558
:101A9A00772D083073067404031D542D552D5C2DC3
:101AAA0038300A128A110C200A128A15772D093049
:101ABA0073067404031D622D632D6A2D39300A12D0
:101ACA008A110C200A128A15772D73087404031DD3
:101ADA006F2D702D772D30300A128A110C200A12C0
:101AEA008A15772D0800F800780803197D2D7E2DB8
:101AFA00922DF31F812D822D922D7009FA00710902
:101B0A00FB007209FC007309FD00FA0A0319FB0ABB
:101B1A000319FC0A0319FD0A9A2D7308FD007208BD
:101B2A00FC007108FB007008FA0073087204710463
:101B3A007004031DA12DA22DAB2D0030F30000303F
:101B4A00F2000030F1000030F000312E9630F4003F
:101B5A007408F900BD2D0130F4007408F90701304A
:101B6A000310FD0CFC0CFB0CFA0CFF3E031DB52DFB
:101B7A00FE307D05031DC22DC32DB02DDF2D013092
:101B8A00F4007408F9070130FA070030031801302D
:101B9A00FB07003003180130FC070030031801303E
:101BAA00FD0701300310FD0CFC0CFB0CFA0CFF3E88
:101BBA00031DD72DFF307D05031DE42DE52DC42D12
:101BCA00F12D0130F9020130F4000310FA0DFB0D7A
:101BDA00FC0DFD0DF40BEA2DFC1BF42DF52DFB2D50
:101BEA00023079020318FA2DFB2DE62D7918FE2D05
:101BFA00FF2D072EFF30FA05FF30FB057F30FC056D
:101C0A00FF30FD050310F90C7908F400F501F6011F
:101C1A00F70118300310F40DF50DF60DF70DFF3E20
:101C2A00031D0F2E7408FA047508FB047608FC04D9
:101C3A007708FD0478080319232E242E292EF31F72
:101C4A00272E282E292EFD177D08F3007C08F20086
:101C5A007B08F1007A08F00008000A128A156E2142
:101C6A000A128A150A128A153D210A128A150A12BF
:101C7A008A158F220A128A15003083120313A300D1
:101C8A000130A2008630A100A030A0000A128A15F5
:101C9A0057220A128A15F301F30A01300A128A1529
:101CAA00B9210A128A1501300A128A1597210A12D5
:101CBA008A150A128A154E210A128A155130F00025
:101CCA000030F1000A128A1557210A128A150030CB
:101CDA00F000F1000A128A1529220A128A157008E0
:101CEA008312031388000A128A1103200A128A1522
:101CFA00033083120313EA000830E9007630E80063
:101D0A00E80B852EE90B852EEA0B852E00000A12B8
:101D1A008A154E210A128A158030F0000030F1002F
:101D2A000A128A1557210A128A15E330F000003088
:101D3A00F1000A128A1557210A128A150A128A15FF
:101D4A0045210A128A158130F0000030F1000A128A
:101D5A008A1557210A128A150A128A1545210A126A
:101D6A008A158130F0000030F1000A128A155721D5
:101D7A000A128A150130F0000030F1000A128A15A1
:101D8A0029220A128A15710883160313A9007008FA
:101D9A00A8000130F0000030F1000A128A15292249
:101DAA000A128A15710883160313A7007008A60081
:101DBA000A128A1103200A128A15033083120313A6
:101DCA00EA000830E9007630E800E80BEA2EE90B71
:101DDA00EA2EEA0BEA2E0000831603132808831260
:101DEA000313E900E801680883160313A4008312A9
:101DFA000313690883160313A5002808A407031808
:101E0A00A50A2908A507FC30A405FF30A505C2309C
:101E1A0083120313D7003B30D6006630D5006630F4
:101E2A00D4004730BD008030BC000030BB00003019
:101E3A00BA004330A3002F30A200B830A1005230BC
:101E4A00A000831603132408F0002508F100F2010C
:101E5A00F30100300A128A1578250A128A157308C6
:101E6A0083120313A7007208A6007108A500700860
:101E7A00A4000A128A1189240A128A1583120313EA
:101E8A002308C1002208C0002108BF002008BE00A4
:101E9A000A128A1124200A128A15831203133D0892
:101EAA00DB003C08DA003B08D9003A08D8000A12DD
:101EBA008A1101220A128A158312031357088316FC
:101ECA000313A30083120313560883160313A200F5
:101EDA0083120313550883160313A10083120313F5
:101EEA00540883160313A0000A128A154E210A12F7
:101EFA008A156130F0000030F1000A128A15572164
:101F0A000A128A150030F000F1000A128A152922F5
:101F1A000A128A15700883120313E8006808ED0094
:101F2A000A128A1103200A128A1503308312031334
:101F3A00EA000830E9007630E800E80BA22FE90B46
:101F4A00A22FEA0BA22F0000831203136D0886004A
:101F5A00F301F30A02300A128A15B9210A128A1504
:101F6A00831203130808E8006808EC006C080A12D8
:101F7A008A15FA230A128A15073083120313E80016
:101F8A006808F30002300A128A15B9210A128A1562
:101F9A00831203130608E8006808EC006C080A12AA
:101FAA008A15FA230A128A15043083120313890642
:101FBA000D30E8006808F30002300A128A15B921C8
:101FCA000A128A15831603132308F3002208F20063
:101FDA002108F1002008F0000A128A1573240A1257
:101FEA008A1570080A128A15FA230A128A155E2EB1
:061FFA000A128A11002802
:04400E00D420FF3F7C
:00000001FF
