:100000000A128A11F72F00308A000408840A820736
:100010000034533431343A342034203420345334CF
:1000200032343A34203420342034203453343334BE
:100030003A34003450344F345434203431343A3468
:100040002034003450344F345434203432343A3471
:08005000203400342E3400348A
:1005FC00831603130F168F160F17E8308B000800A5
:10060C000A128A112B230A128A11831603139114CE
:10061C0008000A128A112B230A128A11831603135B
:10062C00111408000A128A112B230A128A1183163C
:10063C000313111508000A128A112B230A128A11AE
:10064C007008831203139300080083160313141904
:10065C00302B312B2B2B11081F39031D362B372B2D
:10066C002B2B080083160313850186018901880151
:10067C0083160317880189018312031385018601F0
:10068C00880189010800F200831203130910720813
:10069C000A128A1196240A128A11831203138914DE
:1006AC00C730F100592BF10B582B5C2B5D2B8312AF
:1006BC00031389100800F200831203130914720843
:1006CC000A128A1196240A128A11831203138914AE
:1006DC00C730F100712BF10B702B742B752B83121F
:1006EC00031389100800F500F4018D2B74087507AD
:1006FC0084000A128A1103200A128A110A128A1122
:10070C0061230A128A110130F3007308F40774088C
:10071C00750784000A128A1103200A128A11003A02
:10072C00031D992B9A2B7C2B0800F5007503031DD8
:10073C00A02BA12BAD2B73087F3EF4007408F600A0
:10074C0076080A128A1149230A128A11BE2B02302A
:10075C007506031DB22BB32BBE2B7308BF3EF400E2
:10076C007408F60076080A128A1149230A128A11B3
:10077C000800F401F501701CC42BC52BCB2B72089F
:10078C00F4070318F50A7308F50701300310F20D8E
:10079C00F30DFF3E031DCC2B01300310F10CF00CBC
:1007AC00FF3E031DD32B70087104031DDE2BDF2BC2
:1007BC00C12B7508F1007408F00008000A128A11A8
:1007CC002B230A128A118316031391150A128A110C
:1007DC002B230A128A11831203131308F200F3015C
:1007EC007208F4007308F5000A128A112B230A12FE
:1007FC008A1170037104031D042C052C092C83161B
:10080C00031391120C2C83160313911611167508F1
:10081C00F1007408F00008002830831203139400D0
:10082C00831603139101831203132008A4002108DB
:10083C00A5002208A6002308A70002300310A40D6F
:10084C00A50DA60DA70DFF3E031D242C2708F300B4
:10085C002608F2002508F1002408F0000030F7000B
:10086C007A30F6001230F5000030F4000A128A11CA
:10087C00E8240A128A117008FF3E831603139300B2
:10088C00940187150716080000300A128A11962465
:10089C000A128A113430F400F130F300F30B542CAB
:1008AC00F40B542C592C38300A128A1149230A1291
:1008BC008A113430F400F130F300F30B632CF40B99
:1008CC00632C682C0C300A128A1149230A128A11E3
:1008DC003430F400F130F300F30B722CF40B722C67
:1008EC00772C01300A128A1149230A128A113830E6
:1008FC000A128A1149230A128A1108300A128A1123
:10090C0049230A128A1101300A128A1149230A1248
:10091C008A1106300A128A1149230A128A11080018
:10092C00F00070189A2C9E2C831203130514A12C22
:10093C00831203130510F018A42CA82C8312031394
:10094C008514AB2C8312031385107019AE2CB22CAA
:10095C00831203130515B52C831203130511F0191B
:10096C00B82CBC2C831203138515BF2C83120313D4
:10097C008511701AC22CC62C831203130516C92CB0
:10098C00831203130512F01ACC2CD02C83120313F0
:10099C008516D32C831203138512701BD62CDA2CDC
:1009AC00831203130517DD2C831203130513F01B9D
:1009BC00E02CE42C831203138517E72C831203130A
:1009CC00851308000030FC000030FB000030FA00FA
:1009DC000030F90073087204710470040319F72CC9
:1009EC00F82C452DFD01FD0A082D0130F8000310EF
:1009FC00F00DF10DF20DF30DF80BFD2C0130F8009C
:100A0C007808FD07F31F0B2D0C2DFB2C0130F80083
:100A1C000310F90DFA0DFB0DFC0DF80B0E2D7308E0
:100A2C007702031D232D72087602031D232D7108F6
:100A3C007502031D232D70087402031C262D272D0F
:100A4C00362D7008F4027108031C710FF502720840
:100A5C00031C720FF6027308031C730FF702791450
:100A6C0001300310F30CF20CF10CF00CFF3E031DE3
:100A7C00372D0130FD02031D442D452D0C2D7C0816
:100A8C00F3007B08F2007A08F1007908F000080006
:100A9C00F601F11F522D532D5A2DF009F109F00AD0
:100AAC000319F10AF601F60AF31F5D2D5E2D672D71
:100ABC00F209F309F20A0319F30A0130F40074087D
:100ACC00F606F701F8017008710403196E2D6F2DED
:100ADC00A62DF501F50A7D2D01300310F00DF10D59
:100AEC00FF3E031D732D0130F4007408F507F11F50
:100AFC00802D812D722D01300310F70DF80DFF3E66
:100B0C00031D822D71087302031D8E2D7008720255
:100B1C00031C912D922D992D7008F2027108031C63
:100B2C00F303F302771401300310F10CF00CFF3EC9
:100B3C00031D9A2D0130F502031DA52DA62D812D27
:100B4C0076080319AA2DAB2DB02DF709F809F70A71
:100B5C000319F80A7808F1007708F00008008312EE
:100B6C000313A8006430F0000030F1002808F900ED
:100B7C00FA017908F2007A08F3000A128A114E255C
:100B8C000A128A11710883120313A7007008A600B9
:100B9C002708F1002608F0009C30F200FF30F3002B
:100BAC000A128A11BF230A128A118312031328080E
:100BBC007007A20071080318710AA3000A30F00034
:100BCC000030F1002308F3002208F2000A128A1107
:100BDC004E250A128A11710883120313A50070089E
:100BEC00A4002508F1002408F000F630F200FF30D4
:100BFC00F3000A128A11BF230A128A1183120313FB
:100C0C0022087007A00023080318230A7107A1000B
:100C1C002708F4002608F3000A128A112E260A125D
:100C2C008A11831203132508F4002408F3000A1216
:100C3C008A112E260A128A11831203132108F4003A
:100C4C002008F3000A128A112E260A128A110800B3
:100C5C0073037404031D332E342E3B2E31300A12D1
:100C6C008A1161230A128A11B82E02307306740499
:100C7C00031D412E422E492E32300A128A11612355
:100C8C000A128A11B82E033073067404031D4F2EFA
:100C9C00502E572E33300A128A1161230A128A11F0
:100CAC00B82E043073067404031D5D2E5E2E652E63
:100CBC0034300A128A1161230A128A11B82E0530B7
:100CCC0073067404031D6B2E6C2E732E35300A12B2
:100CDC008A1161230A128A11B82E06307306740425
:100CEC00031D792E7A2E812E36300A128A11612339
:100CFC000A128A11B82E073073067404031D872E4E
:100D0C00882E8F2E37300A128A1161230A128A110B
:100D1C00B82E083073067404031D952E962E9D2E46
:100D2C0038300A128A1161230A128A11B82E09303E
:100D3C0073067404031DA32EA42EAB2E39300A1295
:100D4C008A1161230A128A11B82E73087404031DC8
:100D5C00B02EB12EB82E30300A128A1161230A122D
:100D6C008A11B82E08000A128A1138230A128A1125
:100D7C000A128A11FE220A128A110A128A114A24B4
:100D8C000A128A11003083120313A3000130A2004F
:100D9C008630A100A030A0000A128A1112240A1277
:100DAC008A110A128A110F230A128A115130F0008B
:100DBC000030F1000A128A1121230A128A11003024
:100DCC00F000F1000A128A11E4230A128A11700849
:100DDC008312031388000A128A1118230A128A112B
:100DEC00033083120313AB000830AA007630A9003D
:100DFC00A90BFE2EAA0BFE2EAB0BFE2E00000A1228
:100E0C008A110F230A128A114030F0000030F100D1
:100E1C000A128A1121230A128A11F330F0000030D1
:100E2C00F1000A128A1121230A128A11033083124B
:100E3C000313AB000830AA007630A900A90B242FAD
:100E4C00AA0B242FAB0B242F00000A128A110623A5
:100E5C000A128A114130F0000030F1000A128A1196
:100E6C0021230A128A110A128A1106230A128A11E4
:100E7C004130F0000030F1000A128A1121230A12CD
:100E8C008A110130F0000030F1000A128A11E423BB
:100E9C000A128A1170088312031388000130F000C3
:100EAC000030F1000A128A11E4230A128A11700828
:100EBC008312031386000030F000F1000A128A112D
:100ECC00E4230A128A1170088312031386000A1293
:100EDC008A1118230A128A11033083120313AB00F0
:100EEC000830AA007630A900A90B7A2FAA0B7A2F0A
:100EFC00AB0B7A2F00000A128A110F230A128A11E7
:100F0C006130F0000030F1000A128A1121230A121C
:100F1C008A110030F000F1000A128A11E4230A123F
:100F2C008A11700883120313A9002908AD000A1254
:100F3C008A1118230A128A11033083120313AB008F
:100F4C000830AA007630A900A90BAA2FAA0BAA2F49
:100F5C00AB0BAA2F0000831203132D088600F3019C
:100F6C00F30A01300A128A119B230A128A110130EA
:100F7C000A128A1179230A128A11F301F30A023038
:100F8C000A128A119B230A128A118312031308086E
:100F9C00A9002908AC002C080A128A11B5250A12DE
:100FAC008A11073083120313A9002908F3000230B9
:100FBC000A128A119B230A128A1183120313060840
:100FCC00A9002908AC002C080A128A11B5250A12AE
:100FDC008A110430831203138906D72E0A128A1140
:100FEC00002883120313AC01AD01AE0183010A1278
:040FFC008A11B92E6F
:04400E00D420FF3F7C
:00000001FF
