:060000000A128A110C280F
:10000800FE00030EF1000A08F2000A128A115628AF
:100018000A128A110F2883010A128A1113280A1258
:100028008A11AD200A128A110A128A1136200A1280
:100038008A110A128A118C200A128A110A128A114C
:1000480076200A128A110A128A119F200A128A112E
:1000580068300A128A11B5200A128A112C280A124D
:100068008A110C28831203131F139F178316031377
:100078001F129F12C330831203139F0583160313A5
:100088009F13831203131F140C13831603130C17E7
:100098000B178B172130F300F30B5028831203132F
:1000A8009F140800831203130C1F5B285C286A281E
:1000B8000130F000700886071E0888000C132130F4
:1000C800F000F00B6528831203139F148C1E6D2813
:1000D8006E286F288C1272088A00710E8300FE0E3B
:1000E8007E0E0900013083160313850086018030D7
:1000F8008700880189010130831603178800890168
:10010800831203138501860187018801890108008C
:1001180083160313981618128312031398171816C8
:10012800831603138C16831203138C120C30831658
:100138000313990008008312031314109410141168
:100148009411141694168316031394178711141711
:100158000800831603130F168F160F17E8308B004D
:0E0168000800F30073088312031393000800CD
:04400E00D420FF3F7C
:00000001FF
