:060000000A128A110C280F
:10000800FE00030EF1000A08F2000A128A11DD2A26
:100018000A128A110F280A128A1171230A128A11E8
:10002800FA00B701B801F801F90183010A128A112F
:10003800442A83120313A6002608A400A501240855
:10004800AD002508AE006430F3000030F4002E083F
:10005800F6002D08F5000A128A1130210A128A11B9
:10006800740883120313AC007308AB002C08F40067
:100078002B08F3009C30F500FF30F6000A128A11B5
:1000880089220A128A11831203132D087307AD00FF
:100098002E0803182E0A7407AE000A30F300003049
:1000A800F4002E08F6002D08F5000A128A113021F6
:1000B8000A128A11740883120313AA007308A9008C
:1000C8002A08F4002908F300F630F500FF30F6009E
:1000D8000A128A1189220A128A11831203132D081F
:1000E8007307A7002E0803182E0A7407A8002C0807
:1000F800F4002B08F3000A128A11B9200A128A1197
:100108000D3083120313A500FB30A400A40B8A282A
:10011800A50B8A28831203132A08F4002908F30080
:100128000A128A11B9200A128A110D308312031398
:10013800A500FB30A400A40B9F28A50B9F288312C1
:1001480003132808F4002708F3000A128A11B920BB
:100158000A128A110D3083120313A500FB30A40084
:10016800A40BB428A50BB428080073037404031D5A
:10017800BE28BF28C42831308312031399002F29C1
:10018800023073067404031DCA28CB28D0283230E5
:100198008312031399002F29033073067404031D77
:1001A800D628D728DC2833308312031399002F2947
:1001B800043073067404031DE228E328E828343069
:1001C8008312031399002F29053073067404031D45
:1001D800EE28EF28F42835308312031399002F29CD
:1001E800063073067404031DFA28FB2800293630EC
:1001F8008312031399002F29073073067404031D13
:10020800062907290C2937308312031399002F294F
:10021800083073067404031D12291329182938306D
:100228008312031399002F29093073067404031DE0
:100238001E291F29242939308312031399002F29D5
:1002480073087404031D29292A292F2930308312A1
:10025800031399002F29080083120313A101F41F27
:10026800362937293E29F309F409F30A0319F40A50
:10027800A101A10AF61F412942294B29F509F609CE
:10028800F50A0319F60A0130F7007708A106A2015A
:10029800A301730874040319522953298A29A00158
:1002A800A00A612901300310F30DF40DFF3E031D70
:1002B80057290130F7007708A007F41F642965293A
:1002C800562901300310A20DA30DFF3E031D662918
:1002D80074087602031D722973087502031C7529B8
:1002E80076297D297308F5027408031CF603F602C3
:1002F800221401300310F40CF30CFF3E031D7E2979
:100308000130A002031D89298A29652921080319BA
:100318008E298F299429A209A309A20A0319A30ADD
:100328002308F4002208F300080083120313B30023
:1003380001300A128A11B4220A128A110D3083126E
:100348000313B100FB30B000B00BA829B10BA829EA
:100358008312031333080A128A111D200A128A1104
:100368000D3083120313B100FB30B000B00BBA2973
:10037800B10BBA290D308312031399000D30831283
:100388000313B100FB30B000B00BC829B10BC8296A
:1003980009300A128A11B4220A128A110230831211
:1003A8000313B2000430B100B930B000B00BDA2941
:1003B800B10BDA29B20BDA29E129831203132F08CA
:1003C8000A128A111D200A128A110D308312031392
:1003D800B100FB30B000B00BEF29B10BEF290D30A5
:1003E8008312031399000D30990008008312031338
:1003F800A0000130850607110330F7009730F6009A
:10040800F60B042AF70B042A092A33300A128A1138
:100418006B230A128A11831203130518142A152A4A
:10042800232A0A128A112C230A128A11F60083122F
:100438000313200884007608831380002E2A0A12EA
:100448008A112C230A128A11F6007508840076088E
:10045800831380000330F7009730F600F60B322A3A
:10046800F70B322A372A8312031307111A30F700C1
:10047800F830F600F60B3E2AF70B3E2A000008007B
:100488000A128A1116230A128A110A128A11632380
:100498000A128A110A128A113F230A128A110A12B1
:1004A8008A1152230A128A11373083120313B400B7
:1004B8003408F50038300A128A11FA210A128A1112
:1004C8008312031338088800033083120313B6001D
:1004D8000830B5007630B400B40B702AB50B702A1A
:1004E800B60B702A000002308312031389063708FE
:1004F800B4003408AF0038080A128A1199210A1288
:100508008A11582A0A128A110C2883120313A0018F
:10051800A101731C902A912A992A75088312031342
:10052800A0070318A10A7608A10701300310F50DEA
:10053800F60DFF3E031D9A2A01300310F40CF30C4C
:10054800FF3E031DA12A73087404031DAC2AAD2ABB
:100558008D2A831203132108F4002008F3000800F1
:10056800F600F501CF2A7508760784000A128A1169
:1005780000230A128A118312031399000130F30031
:100588007308F5070D30F400FB30F300F30BCA2AAB
:10059800F40BCA2ACF2A7508760784000A128A1132
:1005A80000230A128A11003A031DDB2ADC2AB72A23
:1005B8000800831203138C1EE22AE32AF72A2B3041
:1005C8001A06031DE82AE92AEE2A0130F00070080D
:1005D8008607F62A2D301A06031DF32AF42AF62A6E
:1005E800013086028C1272088A00710E8300FE0E9A
:0405F8007E0E09006A
:1006000003308A000408840A8207003450344F34CF
:100610005434203431343A342034003450344F349C
:100620005434203432343A342034003483160313E3
:1006300085018601890107118801831203130715BB
:10064000831603178801890183120313850186012C
:10065000870188018901080083160313141C312BBC
:10066000322B2C2B0330F4009730F300F30B362B96
:10067000F40B362B3B2B831203131308080083164D
:10068000031398161812831203139817181683165B
:1006900003138C16831203138C120C30831603136E
:1006A0009900080083160313871283120313940121
:1006B0001410941014119411141294168316031329
:1006C000940187110800831603130F168F160F1756
:1006D000E8308B000800F3007308831203139300C3
:0406E00008000134D9
:04400E00D420FF3F7C
:00000001FF
