:060000000A128A110C280F
:10000800FE00030EF0000A08F1000A128A11C8283F
:100018000A128A110F280A128A11E4200A128A1178
:10002800F900F701F80183010A128A115D280130ED
:1000380083120313850607110330F6009730F50085
:10004800F50B2428F60B2428292833300A128A11A4
:10005800DE200A128A118312031305183428352862
:100068003F280A128A1191200A128A118312031357
:100078008800051547280A128A1191200A128A1148
:100088008312031386000330F6009730F500F50B52
:100098004B28F60B4B2850288312031307111A30EC
:1000A800F600F830F500F50B5728F60B5728000036
:1000B80008000A128A117C200A128A110A128A116F
:1000C800D6200A128A110A128A11A4200A128A1149
:1000D8000A128A11B7200A128A11F40100300A1292
:1000E8008A111B200A128A1171280A128A110C28F7
:1000F80083160313850186010711880183120313F0
:1001080007158316031788018901831203138501D4
:100118008601870188018901080083160313141CCE
:100128009628972891280330F3009730F200F20BB5
:100138009B28F30B9B28A02883120313130808009D
:100148008316031398161812831203139817181698
:10015800831603138C16831203138C120C30831628
:1001680003139900080083160313871283120313DD
:1001780094011410941014119411141294168316E7
:100188000313940187110800831203138C1ECD28D2
:10019800CE28CF288C1271088A00700E8300FE0EBC
:1001A8007E0E0900831603130F168F160F17E830FB
:1001B8008B000800F20072088312031393000800F2
:0201C800013400
:04400E00D420FF3F7C
:00000001FF
