:060000000A128A110C280F
:10000800FE00030EF0000A08F1000A128A111A2BEA
:100018000A128A110F280A128A1138230A128A1121
:10002800B400B201B301FA01FB0183010A128A117B
:10003800382A83120313A4002408F800F901780869
:10004800AB007908AC006430F2000030F3002C08F3
:10005800F5002B08F4000A128A112D210A128A11C0
:10006800730883120313AA007208A9002A08F30070
:100078002908F2009C30F400FF30F5000A128A11BA
:1000880093220A128A11831203132B087207AB00FA
:100098002C0803182C0A7307AC000A30F200003051
:1000A800F3002C08F5002B08F4000A128A112D2100
:1000B8000A128A11730883120313A8007208A70092
:1000C8002808F3002708F200F630F400FF30F500A6
:1000D8000A128A1193220A128A11831203132B0817
:1000E8007207A5002C0803182C0A7307A6002A0813
:1000F800F3002908F2000A128A11B6200A128A119E
:100108000D30F900FB30F800F80B8828F90B882827
:100118008D28831203132808F3002708F2000A1217
:100128008A11B6200A128A110D30F900FB30F80046
:10013800F80B9C28F90B9C28A12883120313260886
:10014800F3002508F2000A128A11B6200A128A1151
:100158000D30F900FB30F800F80BB028F90BB02887
:10016800B528080072037304031DBB28BC28C128E6
:1001780031308312031399002C290230720673045C
:10018800031DC728C828CD283230831203139900CD
:100198002C29033072067304031DD328D428D928C8
:1001A80033308312031399002C2904307206730428
:1001B800031DDF28E028E528343083120313990053
:1001C8002C29053072067304031DEB28EC28F1284E
:1001D80035308312031399002C29063072067304F4
:1001E800031DF728F828FD283630831203139900D9
:1001F8002C29073072067304031D032904290929D1
:1002080037308312031399002C29083072067304BF
:10021800031D0F291029152938308312031399005B
:100228002C29093072067304031D1B291C29212956
:1002380039308312031399002C2972087304031DA3
:10024800262927292C2930308312031399002C29B9
:10025800080083120313A101F31F332934293B2912
:10026800F209F309F20A0319F30AA101A10AF51F19
:100278003E293F294829F409F509F40A0319F50A22
:100288000130F6007608A106A201A30172087304E2
:1002980003194F2950298729A001A00A5E29013096
:1002A8000310F20DF30DFF3E031D54290130F60033
:1002B8007608A007F31F612962295329013003102A
:1002C800A20DA30DFF3E031D632973087502031DCC
:1002D8006F2972087402031C722973297A2972081B
:1002E800F4027308031CF503F5022214013003100D
:1002F800F30CF20CFF3E031D7B290130A002031D05
:10030800862987296229210803198B298C29912993
:10031800A209A309A20A0319A30A2308F3002208C1
:10032800F200080083120313B00001300A128A1188
:100338006A220A128A11033083120313AF0097301E
:10034800AE00AE0BA529AF0BA52983120313300805
:100358000A128A111D200A128A110330831203130C
:10036800AF009730AE00AE0BB729AF0BB7290D30F1
:10037800831203139900033083120313AF009730DD
:10038800AE00AE0BC529AF0BC52909300A128A1178
:100398006A220A128A11033083120313AF009730BE
:1003A800AE00AE0BD529AF0BD529831203132D0848
:1003B8000A128A111D200A128A11033083120313AC
:1003C800AF009730AE00AE0BE729AF0BE7290D3031
:1003D8008312031399000D3099000800F7000130CB
:1003E80083120313850607110330F6009730F500D2
:1003F800F50BFC29F60BFC29012A33300A128A1165
:1004080032230A128A118312031305180C2A0D2AA3
:10041800182A0A128A11E3220A128A11F5007708AB
:10042800840075088000222A0A128A11E3220A121F
:100438008A11F50074088400750880000330F600FE
:100448009730F500F50B262AF60B262A2B2A83125D
:10045800031307111A30F600F830F500F50B322AAD
:10046800F60B322A000008000A128A11CE220A125C
:100478008A110A128A112A230A128A110A128A1167
:10048800F6220A128A110A128A1109230A128A11FB
:100498007A3083120313B1003108F4007B300A125A
:1004A8008A11F2210A128A117B0883120313880029
:1004B8007A08B1003108AD007B080A128A1196212A
:1004C8000A128A114C2A0A128A110C28F500F40122
:1004D800852A7408750784000A128A11B8220A123C
:1004E8008A118312031399000130F2007208F4078D
:1004F8000330F3009730F200F20B802AF30B802AC6
:10050800852A7408750784000A128A11B8220A120B
:100518008A11003A031D912A922A6D2A0800F601D1
:10052800F701721C982A992A9F2A7408F60703185B
:10053800F70A7508F70701300310F40DF50DFF3EB3
:10054800031DA02A01300310F30CF20CFF3E031D1B
:10055800A72A72087304031DB22AB32A952A7708BA
:10056800F3007608F200080002308A000408840AC2
:100578008207003450344F345434203431343A3400
:100588002034003450344F345434203432343A3424
:10059800203400348316031385018601071188016E
:1005A8008312031307158316031788018901831221
:1005B80003138501860187018801890108008316D4
:1005C8000313141CE82AE92AE32A0330F3009730BE
:1005D800F200F20BED2AF30BED2AF22A8312031331
:1005E80013080800831603139816181283120313AE
:1005F80098171816831603138C16831203138C127C
:100608000C3083160313990008008316031387120E
:1006180083120313940114109410141194111412DA
:100628009416831603139401871108008312031389
:100638008C1E1F2B202B232B1A0886008C12710866
:100648008A00700E8300FE0E7E0E090083160313C7
:100658000F168F160F17E8308B000800F20072088B
:0A066800831203139300080001340D
:04400E00D420FF3F7C
:00000001FF
