:060000000A128A110C280F
:10000800FE00030EF4000A08F5000A128A119D2A60
:100018000A128A110F280A128A113B240A128A111D
:10002800B800B601B70183010A128A119629831212
:10003800031324032504031D222823282A28153006
:100048000A128A1153230A128A11A7280230240699
:100058002504031D30283128382817300A128A1140
:1000680053230A128A11A728033024062504031DE6
:100078003E283F28462819300A128A1153230A12AB
:100088008A11A728043024062504031D4C284D286E
:1000980054281B300A128A1153230A128A11A728DE
:1000A800053024062504031D5A285B2862281D30C4
:1000B8000A128A1153230A128A11A7280630240625
:1000C8002504031D6828692870281F300A128A1120
:1000D80053230A128A11A728073024062504031D72
:1000E800762877287E2821300A128A1153230A128B
:1000F8008A11A728083024062504031D842885288A
:100108008C2823300A128A1153230A128A11A7282D
:10011800093024062504031D922893289A2825309F
:100128000A128A1153230A128A11A72824082504BF
:10013800031D9F28A028A72813300A128A115323C9
:100148000A128A11A728080083120313AC002C088E
:10015800A800A9010310280DB100290DB2006430D0
:10016800A0000030A1003208A3003108A2000A1242
:100178008A112D210A128A11831203132108B00053
:100188002008AF003008A1002F08A0009C30A20072
:10019800FF30A3000A128A112C230A128A11831233
:1001A800031331082007B10032080318320A210767
:1001B800B2000A30A0000030A1003208A3003108C4
:1001C800A2000A128A112D210A128A11831203131E
:1001D8002108AE002008AD002E08A1002D08A000BF
:1001E800F630A200FF30A3000A128A112C230A124B
:1001F8008A118312031331082007AA003208031852
:10020800320A2107AB003008A5002F08A4000A1203
:100218008A111B200A128A1111300A128A115323DB
:100228000A128A11831203132E08A5002D08A400B0
:100238000A128A111B200A128A11831203132B082F
:10024800A5002A08A4000A128A111B200A128A1182
:10025800080083120313A501A11F332934293B2960
:10026800A009A109A00A0319A10AA501A50AA31FAB
:100278003E293F294829A209A309A20A0319A30A6A
:100288000130F6007608A506A601A701200821047A
:1002980003194F2950298729A401A40A5E2901308E
:1002A8000310A00DA10DFF3E031D54290130F600D7
:1002B8007608A407A11F6129622953290130031078
:1002C800A60DA70DFF3E031D632921082302031D68
:1002D8006F2920082202031C722973297A29200811
:1002E800A2022108031CA303A30226140130031051
:1002F800A10CA00CFF3E031D7B290130A402031DA5
:10030800862987296229250803198B298C2991298F
:10031800A609A709A60A0319A70A2708A1002608FB
:10032800A00008000A128A1133240A128A110A123C
:100338008A1124240A128A1183120313B300330882
:10034800B8000A128A11CF230A128A110A128A11D6
:1003580011240A128A110A128A11E7230A128A1131
:100368000A128A114E220A128A1183120313A1015A
:10037800A10A01300A128A1179230A128A1101305E
:100388000A128A1153230A128A1183120313360898
:100398000A128A11A8200A128A1183120313A101D2
:1003A800A10A02300A128A1179230A128A11093025
:1003B8000A128A1153230A128A1183120313370867
:1003C8000A128A11A8200A128A1102308312031312
:1003D800B5000430B400B930B300B30BF129B40B45
:1003E800F129B50BF129F829B9290A128A110C2823
:1003F800F6007618002A042A831203130514072A24
:10040800831203130510F6180A2A0E2A83120313FF
:100418008514112A8312031385107619142A182AB1
:100428008312031305151B2A831203130511F619EA
:100438001E2A222A831203138515252A83120313E1
:100448008511761A282A2C2A8312031305162F2AB7
:10045800831203130512F61A322A362A831203135B
:100468008516392A831203138512761B3C2A402AE3
:10047800831203130517432A831203130513F61B6C
:10048800462A4A2A8312031385174D2A8312031317
:100498008513080000300A128A11FC210A128A11F9
:1004A800343083120313A200F130A100A10B5A2AA1
:1004B800A20B5A2A38300A128A11B7230A128A1153
:1004C800343083120313A200F130A100A10B6A2A71
:1004D800A20B6A2A0C300A128A11B7230A128A114F
:1004E800343083120313A200F130A100A10B7A2A41
:1004F800A20B7A2A01300A128A11B7230A128A112A
:1005080038300A128A11B7230A128A1108300A12DF
:100518008A11B7230A128A1101300A128A11B723E5
:100528000A128A1106300A128A11B7230A128A118E
:1005380008000B1DA02AA12AA62A0B118312031357
:1005480038088100831203130C1FAB2AAC2ACC2A6B
:100558000C130C300A128A11FC230A128A11F200B9
:10056800720883120313B6001A30F300F830F20051
:10057800F20BBC2AF30BBC2A00000A300A128A11BB
:10058800FC230A128A11F200720883120313B700BF
:100598008C1ECF2AD02AD12A8C1275088A00740E94
:0805A8008300FE0E7E0E090027
:1006000003308A000408840A8207003450344F34CF
:100610005434203431343A342034003450344F349C
:100620005434203432343A34203400342E340034FC
:100630003034003431340034323400343334003454
:100640003434003435340034363400343734003434
:100650003834003439340034F601F70183120313BF
:10066000201C332B342B3A2B2208F6070318F70AE9
:100670002308F70701300310A20DA30DFF3E031D51
:100680003B2B01300310A10CA00CFF3E031D422B9D
:1006900020082104031D4D2B4E2B2E2B7708A10083
:1006A0007608A000080083120313A300A2016B2B9D
:1006B0002208230784000A128A1100230A128A11D1
:1006C0000A128A119F230A128A110130831203131E
:1006D000A1002108A2072208230784000A128A1118
:1006E00000230A128A11003A031D772B782B582B0E
:1006F000080083120313A3002303031D802B812B07
:100700008D2B21087F3EA2002208A40024080A1293
:100710008A11B7230A128A119E2B02302306031D69
:10072000922B932B9E2B2108BF3EA2002208A400EF
:1007300024080A128A11B7230A128A1108008312A8
:100740000313A000091420080A128A11FC210A12BE
:100750008A11831203138914C730F700AF2BF70BEC
:10076000AE2BB22BB32B8312031389100800831214
:100770000313A000091020080A128A11FC210A1292
:100780008A11831203138914C730F700C72BF70BA4
:10079000C62BCA2BCB2B8312031389100800831698
:1007A00003130C17831203130C13831603139F13E5
:1007B0001F121F12831203131F139F171F142130C0
:1007C000F600F60BE12B831203139F140800831627
:1007D00003178801890183160313850103308600FE
:1007E0008030870088018901831203138501860107
:1007F0008701880189010800F1007108F000F00DFF
:10080000F00D831203131F087006C33970069F0092
:100810002130F000F00B0A2C831203139F141E08E2
:1008200008008316031398161812831203139817DF
:100830001816831603138C16831203138C120C30B4
:1008400083160313990008008316031301148114FF
:10085000011581128111A8308B00643083120313BB
:10086000810064300800831603130F168F160F17CC
:08087000E8308B00080064343D
:04400E00D420FF3F7C
:00000001FF
