:060000000A128A110C280F
:10000800FE00030EF4000A08F5000A128A118B2C70
:100018000A128A110F280A128A119B260A128A11BB
:10002800BD00BA01BB01BC0183010A128A11982BD9
:1000380083120313AC002C08A800A9010310280D93
:10004800B100290DB2006430A0000030A1003208D0
:10005800A3003108A2000A128A112F230A128A115A
:10006800831203132108B0002008AF003008A10054
:100078002F08A0009C30A200FF30A3000A128A11AA
:100088008C250A128A118312031331082007B10044
:1000980032080318320A2107B2000A30A0000030E3
:1000A800A1003208A3003108A2000A128A112F23E6
:1000B8000A128A11831203132108AE002008AD002A
:1000C8002E08A1002D08A000F630A200FF30A300E2
:1000D8000A128A118C250A128A1183120313310815
:1000E8002007AA0032080318320A2107AB0030089B
:1000F800F7002F08F6000A128A1146220A128A11FE
:100108000D3083120313A900FB30A800A80B8A281E
:10011800A90B8A282E308312031399002E08F700A2
:100128002D08F6000A128A1146220A128A110D3089
:1001380083120313A900FB30A800A80BA128A90B60
:10014800A128831203132B08F7002A08F6000A12C5
:100158008A1146220A128A110D3083120313A9004C
:10016800FB30A800A80BB628A90BB62808008312F4
:10017800031324032504031DC228C328CA281830E2
:100188000A128A11B3250A128A1147290230240655
:100198002504031DD028D128D82815300A128A1121
:1001A800B3250A128A114729033024062504031DA2
:1001B800DE28DF28E6281E300A128A11B3250A1223
:1001C8008A114729043024062504031DEC28ED284C
:1001D800F42824300A128A11B3250A128A114729F1
:1001E800053024062504031DFA28FB280229263099
:1001F8000A128A11B3250A128A11472906302406E1
:100208002504031D08290929102928300A128A11F2
:10021800B3250A128A114729073024062504031D2D
:10022800162917291E292A300A128A11B3250A12FB
:100238008A114729083024062504031D2429252965
:100248002C292C300A128A11B3250A128A1147293F
:10025800093024062504031D322933293A292E3072
:100268000A128A11B3250A128A114729240825047B
:10027800031D3F294029472922300A128A11B32534
:100288000A128A114729080083120313AC002C08AC
:10029800A800A9010310280DB100290DB20064308F
:1002A800A0000030A1003208A3003108A2000A1201
:1002B8008A112F230A128A11831203132108B0000E
:1002C8002008AF003008A1002F08A0009C30A20031
:1002D800FF30A3000A128A118C250A128A11831290
:1002E800031331082007B10032080318320A210726
:1002F800B2000A30A0000030A1003208A300310883
:10030800A2000A128A112F230A128A1183120313D8
:100318002108AE002008AD002E08A1002D08A0007D
:10032800F630A200FF30A3000A128A118C250A12A7
:100338008A118312031331082007AA003208031810
:10034800320A2107AB003008A5002F08A4000A12C2
:100358008A11BB200A128A1120300A128A11B32589
:100368000A128A11831203132E08A5002D08A4006F
:100378000A128A11BB200A128A11831203132B084E
:10038800A5002A08A4000A128A11BB200A128A11A1
:10039800080083120313B2006430A0000030A100EB
:1003A8003208A800A9012808A2002908A3000A12F7
:1003B8008A112F230A128A11831203132108B1000C
:1003C8002008B0003108A1003008A0009C30A2002D
:1003D800FF30A3000A128A118C250A128A1183128F
:1003E800031332082007AC0021080318210AAD00C6
:1003F8000A30A0000030A1002D08A3002C08A2009C
:100408000A128A112F230A128A1183120313210850
:10041800AF002008AE002F08A1002E08A000F6307B
:10042800A200FF30A3000A128A118C250A128A1131
:10043800831203132C082007AA002D0803182D0A7D
:100448002107AB003108A5003008A4000A128A1160
:10045800BB200A128A11831203132F08A5002E0845
:10046800A4000A128A11BB200A128A1183120313EC
:100478002B08A5002A08A4000A128A11BB200A1218
:100488008A11080076037704031D4B2A4C2A512A47
:100498003130831203139900BC2A023076067704A0
:1004A800031D572A582A5D2A3230831203139900F4
:1004B800BC2A033076067704031D632A642A692A56
:1004C8003330831203139900BC2A0430760677046C
:1004D800031D6F2A702A752A34308312031399007A
:1004E800BC2A053076067704031D7B2A7C2A812ADC
:1004F8003530831203139900BC2A06307606770438
:10050800031D872A882A8D2A3630831203139900FF
:10051800BC2A073076067704031D932A942A992A61
:100528003730831203139900BC2A08307606770403
:10053800031D9F2AA02AA52A383083120313990085
:10054800BC2A093076067704031DAB2AAC2AB12AE7
:100558003930831203139900BC2A76087704031DE7
:10056800B62AB72ABC2A3030831203139900BC2A52
:10057800080083120313B6000230B5003508A10045
:1005880001300A128A11D9250A128A1117300A1263
:100598008A11B3250A128A1183120313A101A10A31
:1005A80002300A128A11D9250A128A1183120313FA
:1005B80036080A128A1148210A128A110830831251
:1005C8000313B5003508A10001300A128A11D92594
:1005D8000A128A111A300A128A11B3250A128A11CC
:1005E800073083120313B5003508A10002300A1240
:1005F8008A11D9250A128A118312031333080A12A1
:100608008A1148210A128A110D3083120313B5008A
:100618003508A10001300A128A11D9250A128A1157
:100628001D300A128A11B3250A128A110D3083125D
:100638000313B5003508A10002300A128A11D92522
:100648000A128A118312031334080A128A11CD215F
:100658000A128A11080083120313A501A11F352B62
:10066800362B3D2BA009A109A00A0319A10AA5014F
:10067800A50AA31F402B412B4A2BA209A309A20AB2
:100688000319A30A0130F6007608A506A601A701FA
:10069800200821040319512B522B892BA401A40AE9
:1006A800602B01300310A00DA10DFF3E031D562B3A
:1006B8000130F6007608A407A11F632B642B552B85
:1006C80001300310A60DA70DFF3E031D652B210861
:1006D8002302031D712B20082202031C742B752B87
:1006E8007C2B2008A2022108031CA303A3022614C2
:1006F80001300310A10CA00CFF3E031D7D2B01301F
:10070800A402031D882B892B642B250803198D2B24
:100718008E2B932BA609A709A60A0319A70A27084F
:10072800A1002608A00008000A128A1193260A12BE
:100738008A110A128A1184260A128A118312031353
:10074800B7003708BD000A128A112F260A128A112B
:100758000A128A1171260A128A110A128A11472668
:100768000A128A110A128A113C240A128A11831267
:1007780003133B08B7003708B3003C080A128A1174
:1007880035250A128A11831203133B08B70037086C
:10079800B3003A08B8003808B4003C080A128A11B5
:1007A800BD220A128A11023083120313B9000430E1
:1007B800B800B930B700B70BDF2BB80BDF2BB90B7C
:1007C800DF2BE62BBB2B0A128A110C28F6007618B1
:1007D800EE2BF22B831203130514F52B831203134C
:1007E8000510F618F82BFC2B831203138514FF2B26
:1007F8008312031385107619022C062C8312031317
:100808000515092C831203130511F6190C2C102C4D
:10081800831203138515132C831203138511761A7B
:10082800162C1A2C8312031305161D2C831203137E
:100838000512F61A202C242C831203138516272C54
:10084800831203138512761B2A2C2E2C8312031372
:100858000517312C831203130513F61B342C382C7F
:100868008312031385173B2C831203138513080087
:1008780000300A128A11EA230A128A1134308312CC
:100888000313A200F130A100A10B482CA20B482CA5
:1008980038300A128A1117260A128A113430831244
:1008A8000313A200F130A100A10B582CA20B582C65
:1008B8000C300A128A1117260A128A113430831250
:1008C8000313A200F130A100A10B682CA20B682C25
:1008D80001300A128A1117260A128A1138300A12B0
:1008E8008A1117260A128A1108300A128A11172645
:1008F8000A128A1101300A128A1117260A128A115D
:1009080006300A128A1117260A128A1108000B1DCE
:100918008E2C8F2C942C0B11831203133D0881000D
:10092800831203130C1F992C9A2CBA2C0C130C301D
:100938000A128A115C260A128A11F20072088312BE
:100948000313BB001A30F300F830F200F20BAA2CA4
:10095800F30BAA2C00000A300A128A115C260A122C
:100968008A11F200720883120313BC008C1EBD2C7E
:10097800BE2CD22C2B301A06031DC32CC42CC92C18
:100988000130F2007208BA07D12C2D301A06031D67
:10099800CE2CCF2CD12C0130BA028C1275088A00CB
:0A09A800740E8300FE0E7E0E09009F
:100A000005308A000408840A8207003450344F34C9
:100A10005434203431342034203420342034003411
:100A200020342D342D342D342034003450344F34C0
:100A30005434203432340034533431340034533499
:100A4000323400345334333400342E3400343034F0
:100A50000034343400343534003436340034373420
:100A60000034383400343934003483120313B400B2
:100A700001300A128A1161250A128A1111300A12F4
:100A80008A1161250A128A110D308312031399000D
:100A900034080A128A111C200A128A110B300A1219
:100AA0008A1161250A128A118312031333080A126C
:100AB0008A111C200A128A110D3083120313990027
:100AC000080083120313A100A0017C2D2008210738
:100AD00084000A128A1100250A128A119900013035
:100AE000F6007608A0070330F7009730F600F60B03
:100AF000772DF70B772D7C2D831203132008210708
:100B000084000A128A1100250A128A11003A031D74
:100B10008A2D8B2D662D0800F601F7018312031331
:100B2000201C932D942D9A2D2208F6070318F70AFE
:100B30002308F70701300310A20DA30DFF3E031D8C
:100B40009B2D01300310A10CA00CFF3E031DA22D14
:100B500020082104031DAD2DAE2D8E2D7708A10098
:100B60007608A000080083120313A300A201CB2D76
:100B70002208230784000A128A1100250A128A110A
:100B80000A128A11FF250A128A11013083120313F7
:100B9000A1002108A2072208230784000A128A1153
:100BA00000250A128A11003A031DD72DD82DB82D21
:100BB000080083120313A3002303031DE02DE12D7E
:100BC000ED2D21087F3EA2002208A40024080A126D
:100BD0008A1117260A128A11FE2D02302306031DE0
:100BE000F22DF32DFE2D2108BF3EA2002208A40005
:100BF00024080A128A1117260A128A110800831281
:100C00000313A000091420080A128A11EA230A1209
:100C10008A11831203138914C730F7000F2EF70BC4
:100C20000E2E122E132E8312031389100800831226
:100C30000313A000091020080A128A11EA230A12DD
:100C40008A11831203138914C730F700272EF70B7C
:100C5000262E2A2E2B2E83120313891008008316AA
:100C600003130C17831203130C13831603139F1320
:100C70001F121F12831203131F139F171F142130FB
:100C8000F600F60B412E831203139F1408008316FF
:100C90000317880189018316031385010330860039
:100CA0008030870088018901831203138501860142
:100CB0008701880189010800F1007108F000F00D3A
:100CC000F00D831203131F087006C33970069F00CE
:100CD0002130F000F00B6A2E831203139F141E08BC
:100CE000080083160313981618128312031398171B
:100CF0001816831603138C16831203138C120C30F0
:100D0000831603139900080083160313011481143A
:100D1000011581128111A8308B00643083120313F6
:100D2000810064300800831603130F168F160F1707
:080D3000E8308B000800643478
:04400E00D420FF3F7C
:00000001FF
