:100000000A128A11F22F00308A000408840A82073B
:10001000003448346F346C34613420344D347534DA
:100020006E3464346F34003450344F3454342034DC
:1000300031343A342034003450344F345434203482
:0C00400032343A34203400342E340034C2
:100D0E00831603130F168F160F17E8308B0008008B
:100D1E0064008001840A0406031900340406902E30
:100D2E008316031385018601890188018316031733
:100D3E0088018901831203138501860188018901C7
:100D4E000800F20083120313091072080A128A11A6
:100D5E00A0270A128A11831203138914C730F100D7
:100D6E00B82EF10BB72EBB2EBC2E83120313891097
:100D7E000800F20083120313091472080A128A1172
:100D8E00A0270A128A11831203138914C730F100A7
:100D9E00D02EF10BCF2ED32ED42E83120313891007
:100DAE000800F5007503031DDD2EDE2EEA2E7308F6
:100DBE007F3EF4007408F60076080A128A11A826FF
:100DCE000A128A11FB2E02307506031DEF2EF02E2D
:100DDE00FB2E7308BF3EF4007408F60076080A1264
:100DEE008A11A8260A128A110800F500F401152F9F
:100DFE007408750784000A128A1103200A128A11D8
:100E0E000A128A11C0260A128A110630F300F30B59
:100E1E000E2F00000130F3007308F40774087507F5
:100E2E0084000A128A1103200A128A11003A031D45
:100E3E00212F222FFF2E08000A128A1197260A123E
:100E4E008A110A128A1187260A128A110A128A1127
:100E5E0054270A128A11F301F30A01300A128A1179
:100E6E00D8260A128A1101300A128A11FC260A1299
:100E7E008A1102308312031388060330F9000830FA
:100E8E00F8007730F700F70B4A2FF80B4A2FF90BC3
:100E9E004A2F322F0A128A11002800300A128A11A4
:100EAE00A0270A128A113430F400F130F300F30B4C
:100EBE005E2FF40B5E2F632F38300A128A11A8268C
:100ECE000A128A113430F400F130F300F30B6D2F57
:100EDE00F40B6D2F722F0C300A128A11A8260A12EB
:100EEE008A113430F400F130F300F30B7C2FF40B45
:100EFE007C2F812F01300A128A11A8260A128A111C
:100F0E0038300A128A11A8260A128A1108300A12DB
:100F1E008A11A8260A128A1101300A128A11A826ED
:100F2E000A128A1106300A128A11A8260A128A118A
:100F3E000800F0007018A42FA82F831203130514B5
:100F4E00AB2F831203130510F018AE2FB22F83129E
:100F5E0003138514B52F8312031385107019B82F40
:100F6E00BC2F831203130515BF2F83120313051114
:100F7E00F019C22FC62F831203138515C92F8312A2
:100F8E0003138511701ACC2FD02F8312031305165D
:100F9E00D32F831203130512F01AD62FDA2F8312D2
:100FAE0003138516DD2F831203138512701BE02F9A
:100FBE00E42F831203130517E72F83120313051370
:100FCE00F01BEA2FEE2F831203138517F12F8312D6
:100FDE00031385130800FA01831320308400303088
:100FEE000A128A118F260A128A1183010A128A1195
:020FFE00232F9F
:04400E00D420FF3F7C
:00000001FF
