:100000000A128A11F32FFF1B0D2883137F18831701
:100010000008840A0319FF0A080000308A00040857
:10002000840A82070034013400340A340034643412
:100030000034E834033410342734253464343A343B
:10004000253464343A3425346434003450344F3425
:100050005434203431343A342034003450344F3462
:100060005434203432343A34203400342E340034C2
:10071000831603130F168F160F17E8308B0008008F
:1007200064008001840A0406031900340406912B36
:100730008316031385018601890188018316031737
:1007400088018901831203138501860188018901CB
:1007500008008316031398161812831203139817B0
:100760001816831603138C16831203138C120C3085
:10077000831603139900803087000800F300F2010C
:10078000731CC32BC42BC82B7008F1007108F2072F
:100790000310F00D0310F30C7308031DD02BD12BA5
:1007A000C02B72080800F2008312031309107208AC
:1007B0000A128A118D250A128A11831203138914D1
:1007C000C730F100E32BF10BE22BE62BE72B831272
:1007D000031389100800F20083120313091472082E
:1007E0000A128A118D250A128A11831203138914A1
:1007F000C730F100FB2BF10BFA2BFE2BFF2B8312E2
:10080000031389100800F5007503031D082C092C3B
:10081000152C73087F3EF4007408F60076080A125F
:100820008A11D3230A128A11262C02307506031D61
:100830001A2C1B2C262C7308BF3EF4007408F600FB
:1008400076080A128A11D3230A128A110800F601C7
:10085000432C76087307840074080318740AFF0099
:100860000A128A1103200A128A110A128A11EB2332
:100870000A128A110630F500F50B3C2C00000130FD
:10088000F5007508F60776087307840074080318E6
:10089000740A83120313FF000A128A1103200A123A
:1008A0008A11003A031D552C562C292C0800F401FE
:1008B000732C74087007840071080318710AFF0014
:1008C0000A128A1103200A128A1199000130F200DB
:1008D0007208F4070D30F300FB30F200F20B6E2CBF
:1008E000F30B6E2C732C74087007840071080318C6
:1008F000710A83120313FF000A128A1103200A12DD
:100900008A11003A031D852C862C592C0D30990034
:100910000A309900080028308312031394008316CC
:1009200003139101831203133808BC003908BD007A
:100930003A08BE003B08BF0002300310BC0DBD0DDD
:10094000BE0DBF0DFF3E031D9D2C3F08F3003E086A
:10095000F2003D08F1003C08F0000030F7007A306A
:10096000F6001230F5000030F4000A128A11DF257B
:100970000A128A117008FF3E831603139300940134
:10098000871507160800780879040319C82CC92CA4
:10099000F82CFD01FD0AD72C01300310F80DF90DDC
:1009A000FF3E031DCD2C0130FC007C08FD07F91F24
:1009B000DA2CDB2CCC2C79087B02031DE12C780887
:1009C0007A02031CE42CE52CEB2C7808FA02790857
:1009D000031CFB03FB0201300310F90CF80CFF3E73
:1009E000031DEC2C0130FD02031DF72CF82CDB2C31
:1009F0007B08F9007A08F8000800F501F601700894
:100A000071040319042D052D3C2DF701F70A132D50
:100A100001300310F00DF10DFF3E031D092D0130D3
:100A2000F4007408F707F11F162D172D082D01305B
:100A30000310F50DF60DFF3E031D182D710873020E
:100A4000031D242D70087202031C272D282D2F2D25
:100A50007008F2027108031CF303F30275140130ED
:100A60000310F10CF00CFF3E031D302D0130F70296
:100A7000031D3B2D3C2D172D7608F1007508F00065
:100A8000080000300A128A118D250A128A113430AA
:100A9000F400F130F300F30B4B2DF40B4B2D502DE4
:100AA00038300A128A11D3230A128A113430F40022
:100AB000F130F300F30B5A2DF40B5A2D5F2D0C304F
:100AC0000A128A11D3230A128A113430F400F13049
:100AD000F300F30B692DF40B692D6E2D01300A1212
:100AE0008A11D3230A128A1138300A128A11D323A9
:100AF0000A128A1108300A128A11D3230A128A11A3
:100B000001300A128A11D3230A128A1106300A12FE
:100B10008A11D3230A128A110800F0007018912D4F
:100B2000952D831203130514982D831203130510BA
:100B3000F0189B2D9F2D831203138514A22D831271
:100B4000031385107019A52DA92D83120313051504
:100B5000AC2D831203130511F019AF2DB32D8312A1
:100B600003138515B62D831203138511701AB92D41
:100B7000BD2D831203130516C02D83120313051216
:100B8000F01AC32DC72D831203138516CA2D8312A5
:100B900003138512701BCD2DD12D8312031305175E
:100BA000D42D831203130513F01BD72DDB2D8312D5
:100BB00003138517DE2D83120313851308000030FD
:100BC000FC000030FB000030FA000030F900730830
:100BD0007204710470040319EE2DEF2D3C2EFD01FB
:100BE000FD0AFF2D0130F8000310F00DF10DF20D9C
:100BF000F30DF80BF42D0130F8007808FD07F31F12
:100C0000022E032EF22D0130F8000310F90DFA0D1B
:100C1000FB0DFC0DF80B052E73087702031D1A2E31
:100C200072087602031D1A2E71087502031D1A2E12
:100C300070087402031C1D2E1E2E2D2E7008F40247
:100C40007108031C710FF5027208031C720FF60283
:100C50007308031C730FF702791401300310F30CAF
:100C6000F20CF10CF00CFF3E031D2E2E0130FD02A4
:100C7000031D3B2E3C2E032E7C08F3007B08F20064
:100C80007A08F1007908F00008000A128A11982306
:100C90000A128A110A128A1188230A128A110A1268
:100CA0008A11A9230A128A110A128A1141250A12ED
:100CB0008A11003083120313BB000130BA00863062
:100CC000B900A030B8000A128A118B240A128A11C6
:100CD0000F30831203132605C9000A30CA004A08E0
:100CE000F0002608CB0004300310CB0CFF3E031DA0
:100CF000742E4B080A128A11BE230A128A1183121B
:100D000003134907CC004C08A6000F302505C90085
:100D10000A30CA004A08F0002508CB00043003104E
:100D2000CB0CFF3E031D8F2E4B080A128A11BE23E7
:100D30000A128A11831203134907CC004C08A5003C
:100D40000F302405C9000A30CA004A08F000240800
:100D5000CB0004300310CB0CFF3E031DAA2E4B0822
:100D60000A128A11BE230A128A1183120313490739
:100D7000CC004C08A4000B30C9004908B800240876
:100D8000CA00CB014A08B9004B08BA002508CC00BC
:100D9000CD014C08BB004D08BC002608CE00CF0199
:100DA0004E08BD004F08BE0028300A128A110B27DA
:100DB0000A128A112830F0000030F1000A128A115C
:100DC00057240A128A11F301F30A01300A128A1118
:100DD00003240A128A112830F3000030F4000A12AA
:100DE0008A1127240A128A110230831203138806FB
:100DF000033083120313CB000830CA007630C900D9
:100E0000C90B002FCA0B002FCB0B002F0000682E40
:100E10000A128A11002883120313C7003930BF0059
:100E20003F08C200DC2F253048060319182F192F60
:100E3000252F4808BF00470884003F08831380001F
:100E40000130BF003F08C707DC2FC3010130B807DE
:100E5000FF30380784000A128A110D200A128A1105
:100E6000C800BF00C0014008003A0319382FDC2F2A
:100E70003F08003A0319EE2F643A0319432F0D3A45
:100E80000319432FDC2F4208840083130008C50098
:100E9000840A0008C6000230BF003F08C207C61F10
:100EA000522F532F5C2F0330BF003F08C304C509E6
:100EB000C609C50A0319C60AC801C80A4808BF00FE
:100EC0003F07013E84000A128A110D200A128A117E
:100ED000C0000A128A110D200A128A11C1004108AD
:100EE0004602031D752F400845020318782F792FFD
:100EF0007A2F842F0130BF003F08C807053048060D
:100F0000031D832F842F5E2F430803390319892F74
:100F10008A2F952F2D30BF00470884003F08831388
:100F200080000130BF003F08C7074808BF003F08E6
:100F3000C400D32F0A30F8000030F9004408BF0085
:100F40003F07013E84000A128A110D200A128A11FD
:100F5000F0000A128A110D200A128A11F1004608C7
:100F6000F3004508F2000A128A11FD240A128A11C0
:100F70007108FB007008FA000A128A11C3240A12D1
:100F80008A117808303E83120313C0004008C8005D
:100F90004808BF00470884003F08831380000130E1
:100FA000BF003F08C707FF30BF003F08C407440A1F
:100FB000031DDB2FDC2F9A2F0130B807FF303807D5
:100FC00084000A128A110D200A128A11BF003F08FC
:100FD000C8004808031DED2FEE2F132F470884008B
:100FE00083138001080083132030840038300A12F4
:100FF0008A1190230A128A1183010A128A11452E3E
:04400E00D420FF3F7C
:00000001FF
