:100000000A128A11F32F00308A000408840A82073A
:10001000003448346F346C34613420344D347534DA
:100020006E3464346F34003450344F3454342034DC
:1000300031343A342034003450344F345434203482
:0C00400032343A34203400342E340034C2
:100D1800831603130F168F160F17E8308B00080081
:100D280064008001840A0406031900340406952E21
:100D38008316031385018601890188018316031729
:100D480088018901831203138501860188018901BD
:100D58000800F20083120313091072080A128A119C
:100D6800A1270A128A11831203138914C730F100CC
:100D7800BD2EF10BBC2EC02EC12E83120313891079
:100D88000800F20083120313091472080A128A1168
:100D9800A1270A128A11831203138914C730F1009C
:100DA800D52EF10BD42ED82ED92E831203138910E9
:100DB8000800F5007503031DE22EE32EEF2E7308DD
:100DC8007F3EF4007408F60076080A128A11AD26F0
:100DD8000A128A11002F02307506031DF42EF52E13
:100DE800002F7308BF3EF4007408F60076080A1254
:100DF8008A11AD260A128A110800F500F4011A2F8B
:100E08007408750784000A128A1103200A128A11CD
:100E18000A128A11C5260A128A110630F300F30B4A
:100E2800132F00000130F3007308F40774087507E6
:100E380084000A128A1103200A128A11003A031D3B
:100E4800262F272F042F08000A128A119C260A121F
:100E58008A110A128A118C260A128A110A128A1118
:100E680055270A128A11F301F30A01300A128A116E
:100E7800DD260A128A1101300A128A1101270A1284
:100E88008A110330F9000830F8007730F700F70BC3
:100E98004B2FF80B4B2FF90B4B2F372F0A128A11B8
:100EA800002800300A128A11A1270A128A11343048
:100EB800F400F130F300F30B5F2FF40B5F2F642F76
:100EC80038300A128A11AD260A128A113430F40019
:100ED800F130F300F30B6E2FF40B6E2F732F0C30E1
:100EE8000A128A11AD260A128A113430F400F13040
:100EF800F300F30B7D2FF40B7D2F822F01300A12A4
:100F08008A11AD260A128A1138300A128A11AD26C2
:100F18000A128A1108300A128A11AD260A128A1199
:100F280001300A128A11AD260A128A1106300A12F5
:100F38008A11AD260A128A110800F0007018A52F30
:100F4800A92F831203130514AC2F83120313051062
:100F5800F018AF2FB32F831203138514B62F831203
:100F6800031385107019B92FBD2F831203130515AC
:100F7800C02F831203130511F019C32FC72F831233
:100F880003138515CA2F831203138511701ACD2FE9
:100F9800D12F831203130516D42F831203130512BE
:100FA800F01AD72FDB2F831203138516DE2F831237
:100FB80003138512701BE12FE52F83120313051706
:100FC800E82F831203130513F01BEB2FEF2F831267
:100FD80003138517F22F8312031385130800831355
:100FE8002030840030300A128A1194260A128A119D
:080FF80083010A128A11282F5F
:04400E00D420FF3F7C
:00000001FF
