:060000000A128A110C280F
:10000800FE00030EF1000A08F2000A128A15DE2F1C
:100018000A128A110F2883136C30FD000F30FE007E
:100028005F30FF005A3084000A128A1575270A12B9
:100038008A11443084005A300A128A1514270A1289
:100048008A11F901FA0183010A128A112B280A126E
:100058008A1550270A128A110A128A150C270A12C1
:100068008A110A128A11EE250A128A110A128A15B1
:1000780084270A128A11003083120313AB0001305F
:10008800AA008630A900A030A8000A128A110B27FE
:100098000A128A110B178B17831603138C168312F7
:1000A80003138C120A128A151C270A128A1171303E
:1000B800F3000030F4000A128A152E270A128A115A
:1000C8000030F300F4000A128A1179270A128A1103
:1000D800730883120313BB003B08C4000A128A1575
:1000E80025270A128A11023083120313BD00043037
:1000F800BC00B930BB00BB0B7F28BC0B7F28BD0BF5
:100108007F2886280A128A151C270A128A11FF30AE
:10011800F3000030F4000A128A152E270A128A11F9
:100128000030F300F4000A128A1179270A128A11A2
:10013800730883120313BB003B08C6000A128A1512
:1001480025270A128A11023083120313BD000430D6
:10015800BC00B930BB00BB0BAF28BC0BAF28BD0B34
:10016800AF28B6280A128A151C270A128A11FF30EE
:10017800F3000030F4000A128A152E270A128A1199
:100188000030F300F4000A128A1179270A128A1142
:10019800730883120313BB003B08C5000A128A15B3
:1001A80025270A128A11023083120313BD00043076
:1001B800BC00B930BB00BB0BDF28BC0BDF28BD0B74
:1001C800DF28E6280A128A151C270A128A11D0305D
:1001D800F3000030F4000A128A152E270A128A1139
:1001E8000030F300F4000A128A152E270A128A1129
:1001F8000A128A151C270A128A11D130F30000301E
:10020800F4000A128A152E270A128A110130F30007
:100218000030F4000A128A1179270A128A11730829
:1002280083120313BB003B08C9000130F300003000
:10023800F4000A128A1179270A128A1173088312A4
:100248000313BB003B08EB000130F3000030F4005F
:100258000A128A1179270A128A1173088312031362
:10026800BB003B08EA000130F3000030F4000A123A
:100278008A1179270A128A11730883120313BB00A3
:100288003B08E9000130F3000030F4000A128A113B
:1002980079270A128A11730883120313BB003B08DB
:1002A800E8000130F3000030F4000A128A117927BF
:1002B8000A128A11730883120313BB003B08E70074
:1002C8000030F300F4000A128A1179270A128A1101
:1002D800730883120313BB003B08E6000A128A1551
:1002E80025270A128A11023083120313BD00043035
:1002F800BC00B930BB00BB0B7F29BC0B7F29BD0BF1
:100308007F2986290F30831203134905BB000A3061
:10031800BC003C08F3004908BD0004300310BD0CC4
:10032800FF3E031D92293D080A128A1599270A12D1
:100338008A11831203133B07BE003E08C9000F3021
:100348006B05BB000A30BC003C08F3006B08BD001D
:1003580004300310BD0CFF3E031DAD293D080A12F1
:100368008A1599270A128A11831203133B07BE00C4
:100378003E08EB006A08BB003B08C8000F306A055E
:10038800BB000A30BC003C08F3006A08BD0004301A
:100398000310BD0CFF3E031DCC293D0801390A128C
:1003A8008A1599270A128A11831203133B07BE0084
:1003B8003E08EA000F306805BB000A30BC003C0864
:1003C800F3006808BD0004300310BD0CFF3E031D98
:1003D800E8293D080A128A1599270A128A118312F8
:1003E80003133B07BE003E08E8000F306705BB005B
:1003F8000A30BC003C08F3006708BD000430031055
:10040800BD0CFF3E031D032A3D080A128A159927D1
:100418000A128A11831203133B07BE003E08E70045
:100428000F306605BB000A30BC003C08F3006608C4
:10043800BD0004300310BD0CFF3E031D1E2A3D08FD
:100448000A128A1599270A128A11831203133B0785
:10045800BE003E08E6006503031D332A342AFD2A40
:100468006408031D382A392A472A6503031D3D2AD3
:100478003E2A472A0A128A1538270A128A11831235
:100488000313E401E40A1A3083120313BC00F730A3
:10049800BB00BB0B4D2ABC0B4D2A522A04308312D9
:1004A8000313BB003B08F70001300A128A11A72783
:1004B8000A128A11831203136A080A128A118926FA
:1004C8000A128A113A300A128A15AE270A128A11BC
:1004D800831203136B080A128A1189260A128A11D9
:1004E8003A300A128A15AE270A128A1183120313A8
:1004F80049080A128A1189260A128A110D308312B4
:100508000313BB003B08F70001300A128A11A72722
:100518000A128A11831203134808BB00053003101E
:10052800BB0CFF3E031D932A3B08BC003C08C700D8
:1005380003304706031DA12AA22AA92A4A300A1213
:100548008A11D1270A128A11B52A02304706031DDB
:10055800AE2AAF2AB52A47300A128A11D1270A12C1
:100568008A111A3083120313BC00F730BB00BB0B8F
:10057800BB2ABC0BBB2AC02A043083120313BB005E
:100588003B08F70002300A128A11A7270A128A11BB
:100598008312031368080A128A1189260A128A111B
:1005A8002F300A128A15AE270A128A1183120313F2
:1005B80067080A128A1189260A128A112F300A122C
:1005C8008A15AE270A128A1132300A128A15AE2706
:1005D8000A128A1130300A128A15AE270A128A11B5
:1005E8008312031366080A128A1189260A128A11CD
:1005F800402B6508031D012B022B402BF701F70A3E
:1006080001300A128A11A7270A128A111A300A120F
:100618008A11D1270A128A118312031346080A1273
:100628008A1189260A128A11F701F70A02300A127A
:100638008A11A7270A128A110B300A128A11D127A8
:100648000A128A11831203134503031D2C2B2D2B29
:10065800342B44300A128A11D1270A128A11402BEE
:100668004508031D382B392B402B4D300A128A11AF
:10067800D1270A128A11402B283083120313BB009A
:100688003B08A8004608BC00BD013C08A9003D087D
:10069800AA004508BE00BF013E08AB003F08AC00F9
:1006A8006A08C000C1014008AD004108AE006B08EF
:1006B800C200C3014208AF004308B0004A300A1222
:1006C8008A1179230A128A114A30F3000030F400A3
:1006D8000A128A1145270A128A110230831203135B
:1006E800880656280A128A110C2883120313B900A7
:1006F8002930B1003108B4004C2C25303A060319D2
:10070800862B872B932B3A08B100390884003108CF
:10071800831380000130B1003108B9074C2CB501B2
:100728000130A807FF30280784000A128A113E25E5
:100738000A128A11BA00B100B2013208003A03194C
:10074800A62B4C2C3108003A03195E2C643A031985
:10075800B12B0D3A0319B12B4C2C340884008313A8
:100768000008B700840A0008B8000230B100310858
:10077800B407B81FC02BC12BCA2B0330B1003108F6
:10078800B504B709B809B70A0319B80ABA01BA0A09
:100798003A08B1003107013E84000A128A113E2549
:1007A8000A128A11B2000A128A113E250A128A1107
:1007B800B30033083802031DE32B3208370203184D
:1007C800E62BE72BE82BF22B0130B1003108BA07F2
:1007D80005303A06031DF12BF22BCC2B35080339D3
:1007E8000319F72BF82B032C2D30B100390884009E
:1007F8003108831380000130B1003108B9073A0885
:10080800B1003108B600432C0A30A3000030A40020
:100818003608B1003107013E84000A128A113E25CC
:100828000A128A11F3000A128A113E250A128A1145
:10083800F4003808F6003708F5000A128A11432632
:100848000A128A11740883120313A6007308A500FC
:100858000A128A11CF260A128A1183120313230857
:10086800303EB2003208BA003A08B10039088400B4
:100878003108831380000130B1003108B907FF3017
:10088800B1003108B607360A031D4B2C4C2C082C36
:100898000130A807FF30280784000A128A113E2574
:1008A8000A128A11B1003108BA003A08031D5D2CFA
:1008B8005E2C812B39088400831380010800831281
:1008C8000313A101F41F692C6A2C712CF309F40994
:1008D800F30A0319F40AA101A10AF61F742C752C56
:1008E8007E2CF509F609F50A0319F60A0130F70016
:1008F8007708A106A201A301730874040319852CC3
:10090800862CBD2CA001A00A942C01300310F30DF5
:10091800F40DFF3E031D8A2C0130F7007708A0076D
:10092800F41F972C982C892C01300310A20DA30DCD
:10093800FF3E031D992C74087602031DA52C73082D
:100948007502031CA82CA92CB02C7308F502740896
:10095800031CF603F602221401300310F40CF30C06
:10096800FF3E031DB12C0130A002031DBC2CBD2C81
:10097800982C21080319C12CC22CC72CA209A30941
:10098800A20A0319A30A2308F4002208F3000800A6
:100998000030F7000030F6000030F5000030F400B9
:1009A8008312031323082204210420040319DD2CD5
:1009B800DE2C2B2DF801F80AEE2C0130F300031081
:1009C800A00DA10DA20DA30DF30BE32C0130F30034
:1009D8007308F807A31FF12CF22CE12C0130F30067
:1009E8000310F40DF50DF60DF70DF30BF42C230899
:1009F8002702031D092D22082602031D092D21089F
:100A08002502031D092D20082402031C0C2D0D2D81
:100A18001C2D2008A4022108031C210FA50222086E
:100A2800031C220FA6022308031C230FA702741419
:100A380001300310A30CA20CA10CA00CFF3E031D57
:100A48001D2D0130F802031D2A2D2B2DF22C7708BD
:100A5800A3007608A2007508A1007408A000080089
:100A6800FF1B3E2D83137F1883170008840A031980
:100A7800FF0A080005308A000408840A8207003447
:100A8800013400340A34003464340034E834033464
:100A98001034273443346F346C346F347234203458
:100AA80052346F347334613464346F343A342034DC
:100AB800003455346C3474347234613473346F34A4
:100AC8006E34693463346F343A3420340034253456
:100AD80064342034253464342034253464343A347E
:100AE80025346434003450344F3454342034313491
:100AF8003A342034003450344F34543420343234AF
:100B08003A342034003453344934003441344D34B9
:100B1800003450344D3400344E344F340034831292
:100B28000313A101F61F992D9A2DA12DF509F60998
:100B3800F50A0319F60AA101A10AF41FA42DA52D8F
:100B4800AA2DF309F409F30A0319F40A73087404C3
:100B58000319AF2DB02DDF2DA001A00ABE2D013045
:100B68000310F30DF40DFF3E031DB42D0130F70003
:100B78007708A007F41FC12DC22DB32D7408760283
:100B8800031DC82D73087502031CCB2DCC2DD22D47
:100B98007308F5027408031CF603F602013003100B
:100BA800F40CF30CFF3E031DD32D0130A002031DEE
:100BB800DE2DDF2DC22D21080319E32DE42DE92DAB
:100BC800F509F609F50A0319F60A7608F400750816
:100BD800F30008000B138B1300300A128A11FA274E
:100BE8000A128A113430F800F130F700F70BFA2DA9
:100BF800F80BFA2DFF2D30300A128A15C4270A1275
:100C08008A110D30F800FB30F700F70B092EF80BAE
:100C1800092E0E2E30300A128A15C4270A128A119C
:100C28001D30F8009130F700F70B182EF80B182E2E
:100C380030300A128A15C4270A128A1138300A126B
:100C48008A15C4270A128A1108300A128A15C4277D
:100C58000A128A1101300A128A15C4270A128A1147
:100C680006300A128A15C4270A128A110C300A1291
:100C78008A15C4270A128A110B178B1708008312CA
:100C88000313A101A2017308740403194C2E4D2EFD
:100C9800842EA001A00A5B2E01300310F30DF40D81
:100CA800FF3E031D512E0130F7007708A007F41FFF
:100CB8005E2E5F2E502E01300310A10DA20DFF3EB7
:100CC800031D602E74087602031D6C2E73087502CE
:100CD800031C6F2E702E772E7308F5027408031C00
:100CE800F603F602211401300310F40CF30CFF3E56
:100CF800031D782E0130A002031D832E842E5F2E43
:100D08002208F4002108F300080083120313A90045
:100D18000A30F3000030F4002908A400A5012408D3
:100D2800F5002508F6000A128A1163240A128A11AE
:100D3800730883120313A6002608A7000A30F300DD
:100D48000030F4002908A400A5012408F5002508AE
:100D5800F6000A128A1193250A128A11730883125F
:100D68000313A6002608A80027085A3E8400831308
:100D780000080A128A15AE270A128A118312031371
:100D880028085A3E8400831300080A128A15AE27E1
:100D98000A128A1108008312031323082404031972
:100DA800D62ED72E062FA701A70AE52E013003104D
:100DB800A30DA40DFF3E031DDB2E0130F8007808BB
:100DC800A707A41FE82EE92EDA2E24082602031D01
:100DD800EF2E23082502031CF22EF32EF92E2308EA
:100DE800A5022408031CA603A60201300310A40CC4
:100DF800A30CFF3E031DFA2E0130A702031D052F89
:100E0800062FE92E2608A4002508A300080028308C
:100E1800831203139400831603139101831203139F
:100E28002808AC002908AD002A08AE002B08AF003E
:100E380002300310AC0DAD0DAE0DAF0DFF3E031D1E
:100E48001D2F2F08A3002E08A2002D08A1002C0892
:100E5800A0000030A7007A30A6001230A5000030AC
:100E6800A4000A128A11CC240A128A1183120313CD
:100E78002008FF3E83160313930094018715071675
:100E88000800F701612F77087307840074080318B6
:100E9800740AFF000A128A1134250A128A1199006D
:100EA8000130F5007508F7070D30F600FB30F50046
:100EB800F50B5C2FF60B5C2F612F77087307840006
:100EC80074080318740A83120313FF000A128A11A4
:100ED80034250A128A11003A031D732F742F472FE5
:100EE8000D3099000A30990008000A128A15432724
:100EF8000A128A118316031391150A128A154327B9
:100F08000A128A11831203131308F500F6017508F3
:100F1800F7007608F8000A128A1543270A128A1180
:100F280073037404031D992F9A2F9E2F831603139E
:100F38009112A12F83160313911611167808F40045
:100F48007708F300080083120313A0000B138B1318
:100F58002003031DB02FB12FBD2F77087F3EF80067
:100F68007808A10021080A128A15C4270A128A11D2
:100F7800CE2F02302006031DC22FC32FCE2F770895
:100F8800BF3EF8007808A10021080A128A15C42774
:100F98000A128A110B178B170800F8000B138B1312
:100FA800F601F701EA2F7608780784000A128A11F9
:100FB8003E250A128A110A128A15AE270A128A11C8
:100FC8000130F6070318F70A0030F70776087807A4
:100FD80084000A128A113E250A128A11003A031D5A
:100FE800F62FF72FD72F0B178B170800F30073086E
:080FF8008312031385000800B9
:101E1800831603130F168F160F17E8308B00080070
:101E280064008001840A0406031900340406152F8F
:101E38000A128A1543270A128A15831603131114E6
:101E480008000A128A1543270A128A1583160313F3
:101E5800111508000A128A1543270A128A157308F1
:101E680083120313930008000B138B1301300A121B
:101E78008A15C4270A128A150B178B1708008316B0
:101E880003131419482F492F432F11081F39031D15
:101E98004E2F4F2F432F0800831603138501880107
:101EA80089018316031788018901831203138501A9
:101EB8008801890108003034313432343334343401
:101EC8003534363437343834393401340134213434
:101ED800093404340534703441347E088A007F089C
:101EE80082000A128A1571270A128A158000840A4C
:101EF80004087D0603190034FF0A0319FE0A752F2A
:101F080083160313981618128312031398171816BA
:101F1800831603138C16831203138C120C3083164A
:101F280003139900803087000800F600F501761C3D
:101F38009E2F9F2FA32F7308F4007408F507031032
:101F4800F30D0310F60C7608031DAB2FAC2F9B2F57
:101F580075080800F50083120313091475080A129E
:101F68008A11FA270A128A158312031389141A3060
:101F7800F400F40BBD2F000083120313891008002E
:101F8800F60083120313091076080A128A11FA2739
:101F98000A128A158312031389140B30F500623074
:101FA800F400F40BD52FF50BD52F00008312031383
:101FB80089100800831203138C1EE32FE42FF92FD6
:101FC8006508F0007008E40031301A06031DED2F93
:101FD800EE2FF12FE501E50AF82F30301A06031D20
:101FE800F62FF72FF82FE5018C1272088A00710E70
:081FF8008300FE0E7E0E0900BD
:04400E00D420FF3F7C
:00000001FF
