:060000000A128A110C280F
:10000800FE00030EF9000A08FA000A128A11002EEF
:100018000A128A110F2883132F30FD000730FE00C3
:100028006530FF00203084000A128A1156270A1210
:100038008A11BE01BF01C001C101C201C301C401CF
:10004800C501C601C701C801C901CA01F001F10112
:10005800F201F301F401F501F601F70183010A1237
:100068008A1136280A128A1183270A128A110A125B
:100078008A1191270A128A110A128A1174270A1200
:100088008A1183120313BC003C08CB0070300A129B
:100098008A1120270A128A1183120313861D5528F4
:1000A80056287428210803195A285B286128023029
:1000B8002106031D6028612867280330BC003C081E
:1000C800A1008617742803302106031D6C286D28AB
:1000D80074284403031D7128722874288613742811
:1000E8002108031D78287928F928D4302702031815
:1000F8007E287F288928C3302306031D8428852865
:1001080089280130BC003C08A70733302402031CAF
:100118008E288F289A28C3302306031D94289528F3
:100128009A282408FE3EBC003C08A400D8302202CD
:1001380003189F28A028AB28C3302306031DA52831
:10014800A628AB282208023EBC003C08A200E130E9
:1001580026020318B028B128B5280130BC003C0895
:10016800A607E13025020318BA28BB28BF280130AA
:10017800BC003C08A507C4302302031CC428C528BA
:10018800C7280130A302D4302706031DCC28CD2868
:10019800EE28E1302606031DD228D328EE28E130C8
:1001A8002506031DD828D928EE2832302406031D39
:1001B800DE28DF28EE28C3302306031DE428E528BF
:1001C800EE28D8302206031DEA28EB28EE28A101E4
:1001D800A10AC3015B3083120313BD00E730BC00E2
:1001E800BC0BF428BD0BF42850282103031DFD285F
:1001F800FE28442DD230BC0027083C02F600F70147
:10020800031CF703F71F09290A290F29F609F7091B
:10021800F60A0319F70A7708803AFF0080307F0250
:10022800031D18290530760203181B291C292029CB
:1002380083120313CA01CA0ADC3083120313BC00F9
:1002480026083C02F400F501031CF503F51F2D29CF
:100258002E293329F409F509F40A0319F50A750852
:10026800803AFF0080307F02031D3C29053074026C
:1002780003183F294029442983120313C901C90AD5
:10028800DC3083120313BC0025083C02F200F301A2
:10029800031CF303F31F512952295729F209F309C3
:1002A800F20A0319F30A7308803AFF0080307F02CC
:1002B800031D60290530720203186329642968291F
:1002C80083120313C801C80AD63083120313BC0073
:1002D80024083C02F000F101031CF103F11F752909
:1002E80076297B29F009F109F00A0319F10A710846
:1002F800803AFF0080307F02031D84290530700298
:100308000318872988298C2983120313C701C70A70
:10031800DC3083120313BC0023083C02C000C10177
:10032800031CC103C11F99299A299F29C009C10922
:10033800C00A0319C10A4108803AFF0080307F02D1
:10034800031DA829053040020318AB29AC29B029A0
:1003580083120313C601C60ACC3083120313BC00F0
:1003680022083C02BE00BF01031CBF03BF1FBD29FA
:10037800BE29C329BE09BF09BE0A0319BF0A3F081F
:10038800803AFF0080307F02031DCC2905303E02F1
:100398000318CF29D029D42983120313C501C50A0C
:1003A8007508803A83120313BC007708803A3C0230
:1003B800031DE029760874020318E329E429432A77
:1003C8007308803A83120313BC007708803A3C0212
:1003D800031DF029760872020318F329F429432A29
:1003E8007108803A83120313BC007708803A3C02F4
:1003F800031D002A760870020318032A042A432AD8
:10040800831203134108803ABC007708803A3C0203
:10041800031D102A760840020318132A142A432AB7
:10042800831203133F08803ABC007708803A3C02E5
:10043800031D202A76083E020318232A242A432A69
:10044800831203134A08031D2A2A2B2A432AD2306F
:1004580027020318302A312A372A2708043EBC000D
:100468003C08A7006D2CD3302702031C3C2A3D2AE8
:100478006D2C2708FC3EBC003C08A7006D2C7708B3
:10048800803A83120313BC007508803A3C02031DAE
:100498004F2A740876020318522A532AB22A73087C
:1004A800803A83120313BC007508803A3C02031D8E
:1004B8005F2A740872020318622A632AB22A710832
:1004C800803A83120313BC007508803A3C02031D6E
:1004D8006F2A740870020318722A732AB22A8312C8
:1004E80003134108803ABC007508803A3C02031D9A
:1004F8007F2A740840020318822A832AB22A8312A8
:1005080003133F08803ABC007508803A3C02031D7B
:100518008F2A74083E020318922A932AB22A831259
:1005280003134908031D992A9A2AB22ADC302602A5
:1005380003189F2AA02AA62A2608043EBC003C08C5
:10054800A6006D2CDD302602031CAB2AAC2A6D2CCC
:100558002608FC3EBC003C08A6006D2C7708803AB3
:1005680083120313BC007308803A3C02031DBE2AA1
:10057800720876020318C12AC22A212B7508803A0C
:1005880083120313BC007308803A3C02031DCE2A71
:10059800720874020318D12AD22A212B7108803AD2
:1005A80083120313BC007308803A3C02031DDE2A41
:1005B800720870020318E12AE22A212B831203131E
:1005C8004108803ABC007308803A3C02031DEE2AB9
:1005D800720840020318F12AF22A212B831203130E
:1005E8003F08803ABC007308803A3C02031DFE2A8B
:1005F80072083E020318012B022B212B83120313CE
:100608004808031D082B092B212BDC302502031871
:100618000E2B0F2B152B2508043EBC003C08A5000B
:100628006D2CDD302502031C1A2B1B2B6D2C250885
:10063800FC3EBC003C08A5006D2C7708803A83126C
:100648000313BC007108803A3C02031D2D2B70086F
:1006580076020318302B312B902B7508803A8312C1
:100668000313BC007108803A3C02031D3D2B70083F
:1006780074020318402B412B902B7308803A831285
:100688000313BC007108803A3C02031D4D2B70080F
:1006980072020318502B512B902B8312031341081D
:1006A800803ABC007108803A3C02031D5D2B70083B
:1006B80040020318602B612B902B831203133F0811
:1006C800803ABC007108803A3C02031D6D2B70080B
:1006D8003E020318702B712B902B831203134708CB
:1006E800031D772B782B902BD630240203187D2BF3
:1006F8007E2B842B2408043EBC003C08A4006D2CEF
:10070800D7302402031C892B8A2B6D2C2408FC3E2D
:10071800BC003C08A4006D2C7708803A83120313B0
:10072800BC004108803A3C02031D9C2B400876021D
:1007380003189F2BA02BFF2B7508803A83120313F5
:10074800BC004108803A3C02031DAC2B40087402EF
:100758000318AF2BB02BFF2B7308803A83120313B7
:10076800BC004108803A3C02031DBC2B40087202C1
:100778000318BF2BC02BFF2B7108803A8312031379
:10078800BC004108803A3C02031DCC2B4008700293
:100798000318CF2BD02BFF2B831203133F08803A6B
:1007A800BC004108803A3C02031DDC2B40083E0295
:1007B8000318DF2BE02BFF2B831203134608031DBE
:1007C800E62BE72BFF2BDC3023020318EC2BED2B59
:1007D800F32B2308043EBC003C08A3006D2CDD303D
:1007E8002302031CF82BF92B6D2C2308FC3EBC00BC
:1007F8003C08A3006D2C7708803A83120313BC00D1
:100808003F08803A3C02031D0B2C3E087602031871
:100818000E2C0F2C6D2C7508803A83120313BC0024
:100828003F08803A3C02031D1B2C3E087402031843
:100838001E2C1F2C6D2C7308803A83120313BC00E6
:100848003F08803A3C02031D2B2C3E087202031815
:100858002E2C2F2C6D2C7108803A83120313BC00A8
:100868003F08803A3C02031D3B2C3E0870020318E7
:100878003E2C3F2C6D2C831203134108803ABC0098
:100888003F08803A3C02031D4B2C3E0840020318E7
:100898004E2C4F2C6D2C831203134508031D552C29
:1008A800562C6D2CCC30220203185B2C5C2C622C4D
:1008B8002208043EBC003C08A2006D2CCD30220268
:1008C800031C672C682C6D2C2208FC3EBC003C08DD
:1008D800A200D2308312031327060319742C752C37
:1008E800882CD230270203187A2C7B2C802C0130DC
:1008F800BC003C08A707882CD3302702031C852C92
:10090800862C882C0130A702DC30260603198D2C92
:100918008E2CA12CDC3026020318932C942C992CB5
:100928000130BC003C08A607A12CDD302602031CC0
:100938009E2C9F2CA12C0130A602DC302506031921
:10094800A62CA72CBA2CDC3025020318AC2CAD2C15
:10095800B22C0130BC003C08A507BA2CDD302502BA
:10096800031CB72CB82CBA2C0130A502D6302406AB
:100978000319BF2CC02CD32CD63024020318C52C45
:10098800C62CCB2C0130BC003C08A407D32CD73094
:100998002402031CD02CD12CD32C0130A402DC302F
:1009A80023060319D82CD92CEC2CDC30230203188D
:1009B800DE2CDF2CE42C0130BC003C08A307EC2C17
:1009C800DD302302031CE92CEA2CEC2C0130A302B5
:1009D800CC3022060319F12CF22C052DCC30220242
:1009E8000318F72CF82CFD2C0130BC003C08A2079A
:1009F800052DCD302202031C022D032D052D0130BB
:100A0800A202DC302606031D0A2D0B2DEE28DC3051
:100A18002506031D102D112DEE28DC302306031D9D
:100A2800162D172DEE28D2302706031D1C2D1D2D3F
:100A3800EE28D6302406031D222D232DEE28CC3097
:100A48002206031D282D292DEE284308210203180C
:100A58002E2D2F2D312DA1013B2D210843020318E6
:100A6800362D372D3B2D0230BC003C08A100861DD9
:100A78003E2D3F2DEE280330BC003C08A100EE2897
:100A880002302106031D492D4A2DC32DD4302702DB
:100A980003184F2D502D5A2DA0302506031D552D16
:100AA800562D5A2D0130BC003C08A707D830240227
:100AB80003185F2D602D6B2DA0302506031D652DB5
:100AC800662D6B2D2408023EBC003C08A400333080
:100AD8002202031C702D712D7C2DA0302506031DCC
:100AE800762D772D7C2D2208FE3EBC003C08A20006
:100AF800E13026020318812D822D862D0130BC009D
:100B08003C08A607A1302502031C8B2D8C2D8E2DA9
:100B18000130A502E13023020318932D942D982D5E
:100B28000130BC003C08A307D4302706031D9D2DC7
:100B38009E2DEE28E1302606031DA32DA42DEE28B8
:100B4800A0302506031DA92DAA2DEE28D83024068D
:100B5800031DAF2DB02DEE28E1302306031DB52D62
:100B6800B62DEE2832302206031DBB2DBC2DEE28F3
:100B7800A101A10A0230BC003C08C300EE280330E2
:100B88002106031DC82DC92DFC2DC4302602031CC7
:100B9800CE2DCF2DD12D0130A602C4302502031C45
:100BA800D62DD72DD92D0130A502C4302302031C20
:100BB800DE2DDF2DE12D0130A302C3302606031DF3
:100BC800E62DE72DF52DC3302506031DEC2DED2D63
:100BD800F52DC3302306031DF22DF32DF52DC40189
:100BE800C40A8619F82DF92DEE28A101C401EE28B2
:100BF80050280A128A110C280B1D032E042EB12E20
:100C08000B11831203134B0881000814AF01B001C4
:100C1800152E013083120313AF070318B00A0030F2
:100C2800B0073008803AF80080307802031D1E2E85
:100C380027082F02031C212E222E0D2E83120313A8
:100C480008108814B101B201312E01308312031348
:100C5800B1070318B20A0030B2073208803AF80028
:100C680080307802031D3A2E26083102031C3D2EDF
:100C78003E2E292E8312031388100815B301B401E0
:100C88004D2E013083120313B3070318B40A003042
:100C9800B4073408803AF80080307802031D562ED5
:100CA80025083302031C592E5A2E452E831203138E
:100CB80008118815B501B601692E01308312031396
:100CC800B5070318B60A0030B6073608803AF800A8
:100CD80080307802031D722E24083502031C752EFD
:100CE800762E612E8312031388110816B701B801F6
:100CF800852E013083120313B7070318B80A003092
:100D0800B8073808803AF80080307802031D8E2E24
:100D180023083702031C912E922E7D2E8312031373
:100D280008128816B901BA01A12E013083120313E3
:100D3800B9070318BA0A0030BA073A08803AF80027
:100D480080307802031DAA2E22083902031CAD2E1A
:100D5800AE2E992E831203138812831203138C1D4F
:100D6800B62EB72E192F1412141BBB2EBC2EC02E54
:100D7800941FBF2EC02EC72E1308F8007808C20093
:100D880014139413141683160313941ACC2ECD2E11
:100D9800E82E1419D02ED12EE82E8312031313082F
:100DA800F8007808C2008C11141683160313141C5B
:100DB800DE2EDF2ED92E831203138614A630F800F8
:100DC800F80BE42E0000162F941AEB2EEC2E162F9B
:100DD800141DEF2EF02E162F831203131308F8009C
:100DE8007808C20083160313141083120313200813
:100DF80093000310861C03140318032F072F831274
:100E0800031386140A2F8312031386101416A630B0
:100E1800F800F80B0D2F0000831603131418152F74
:100E2800162F102F831203138C117A088A00790E5B
:100E38008300FE0E7E0E090083120313BB003B08DD
:100E48008316031393003630831203139400803003
:100E580083160313940001309100871507168B172A
:100E68000B17831203138C11831603138C150800B8
:100E780007308A000408840A8207003450344F344B
:100E88005434203431343A342034003450344F341C
:100E98005434203432343A34203400347E088A0002
:100EA8007F0882000A128A1152270A128A118000CA
:100EB800840A04087D0603190034FF0A0319FE0A90
:100EC800562F32340334CC34DC34D634DC34DC34BE
:100ED800D234CC34DC34D634DC34DC34D234FF3491
:100EE8008316031301148114011581128111A8308E
:100EF8008B0064308312031381006430080083166A
:100F080003138801083086008316031788018901B6
:100F180083120313880186010800831603130F1632
:0A0F28008F160F17E8308B00080049
:04400E00D420FF3F7C
:00000001FF
