:060000000A128A11122809
:10000800FE00030E83120313B0000408B1000A08AF
:10001800B2007F08B3000A128A112F280A128A1127
:10002800152883135830FD000630FE000F30FF00FE
:10003800503084000A128A11E0250A128A114030D1
:10004800840050300A128A1117260A128A11830175
:100058000A128A11992D0B1D32283328DE280B111C
:10006800580881000814B401B501422801308312F0
:100078000313B4070318B50A0030B5073508803AEA
:10008800AD0080302D02031D4B2855083402031C97
:100098004E284F283A288312031308108814B601F3
:1000A800B7015E28013083120313B6070318B70A95
:1000B8000030B7073708803AAD0080302D02031DA5
:1000C800672854083602031C6A286B2856288312AE
:1000D800031388100815B801B9017A280130831272
:1000E8000313B8070318B90A0030B9073908803A6A
:1000F800AD0080302D02031D832853083802031CED
:100108008628872872288312031308118815BA01D4
:10011800BB019628013083120313BA070318BB0AE0
:100128000030BB073B08803AAD0080302D02031D2C
:100138009F2852083A02031CA228A3288E2883125B
:10014800031388110816BC01BD01B22801308312BF
:100158000313BC070318BD0A0030BD073D08803AE9
:10016800AD0080302D02031DBB2851083C02031C42
:10017800BE28BF28AA288312031308128816BE01B6
:10018800BF01CE28013083120313BE070318BF0A2C
:100198000030BF073F08803AAD0080302D02031DB4
:1001A800D72850083E02031CDA28DB28C628831209
:1001B800031388128C1EE128E228822B31301A069C
:1001C800031DE728E8282329570855020318ED28B6
:1001D800EE280D290130AD002D08D5070B30AD00F4
:1001E8002D08A0005508AE00AF012E08A1002F0869
:1001F800A20040300A128A118D230A128A11403057
:10020800F0000030F1000A128A1165250A128A11DD
:100218007F2B5608AD002D08D5000B30AD002D08FA
:10022800A0005508AE00AF012E08A1002F08A200BB
:1002380040300A128A118D230A128A11032932309A
:100248001A06031D28292929592955085602031871
:100258002E292F2943290130D5020B30AD002D0856
:10026800A0005508AE00AF012E08A1002F08A2007B
:1002780040300A128A118D230A128A11032957085D
:10028800AD002D08D5000B30AD002D08A000550895
:10029800AE00AF012E08A1002F08A20040300A12BC
:1002A8008A118D230A128A11032933301A06031D75
:1002B8005E295F2991295708540203186429652982
:1002C8007B290130AD002D08D4071730AD002D086B
:1002D800A0005408AE00AF012E08A1002F08A2000C
:1002E80040300A128A118D230A128A1103295608EE
:1002F800AD002D08D4001730AD002D08A00054081B
:10030800AE00AF012E08A1002F08A20040300A124B
:100318008A118D230A128A11032934301A06031D03
:1003280096299729C7295408560203189C299D29FC
:10033800B1290130D4021730AD002D08A0005408AF
:10034800AE00AF012E08A1002F08A20040300A120B
:100358008A118D230A128A1103295708AD002D0826
:10036800D4001730AD002D08A0005408AE00AF012E
:100378002E08A1002F08A20040300A128A118D23EE
:100388000A128A11032935301A06031DCC29CD29F2
:10039800FF29570853020318D229D329E929013024
:1003A800AD002D08D3072330AD002D08A000530859
:1003B800AE00AF012E08A1002F08A20040300A129B
:1003C8008A118D230A128A1103295608AD002D08B7
:1003D800D3002330AD002D08A0005308AE00AF01B4
:1003E8002E08A1002F08A20040300A128A118D237E
:1003F8000A128A11032936301A06031D042A052A0F
:10040800352A5308560203180A2A0B2A1F2A0130D4
:10041800D3022330AD002D08A0005308AE00AF0171
:100428002E08A1002F08A20040300A128A118D233D
:100438000A128A1103295708AD002D08D30023306A
:10044800AD002D08A0005308AE00AF012E08A10092
:100458002F08A20040300A128A118D230A128A112D
:10046800032937301A06031D3A2A3B2A6D2A5708F2
:1004780052020318402A412A572A0130AD002D089C
:10048800D2072F30AD002D08A0005208AE00AF01F2
:100498002E08A1002F08A20040300A128A118D23CD
:1004A8000A128A1103295608AD002D08D2002F30F0
:1004B800AD002D08A0005208AE00AF012E08A10023
:1004C8002F08A20040300A128A118D230A128A11BD
:1004D800032938301A06031D722A732AA32A5208E0
:1004E80056020318782A792A8D2A0130D2022F3031
:1004F800AD002D08A0005208AE00AF012E08A100E3
:100508002F08A20040300A128A118D230A128A117C
:1005180003295708AD002D08D2002F30AD002D0853
:10052800A0005208AE00AF012E08A1002F08A200BB
:1005380040300A128A118D230A128A110329393090
:100548001A06031DA82AA92ADB2A570851020318EC
:10055800AE2AAF2AC52A0130AD002D08D1073B309D
:10056800AD002D08A0005108AE00AF012E08A10073
:100578002F08A20040300A128A118D230A128A110C
:1005880003295608AD002D08D1003B30AD002D08D9
:10059800A0005108AE00AF012E08A1002F08A2004C
:1005A80040300A128A118D230A128A110329303029
:1005B8001A06031DE02AE12A112B510856020318D6
:1005C800E62AE72AFB2A0130D1023B30AD002D088C
:1005D800A0005108AE00AF012E08A1002F08A2000C
:1005E80040300A128A118D230A128A1103295708EA
:1005F800AD002D08D1003B30AD002D08A0005108FA
:10060800AE00AF012E08A1002F08A20040300A1248
:100618008A118D230A128A11032971301A06031DC3
:10062800162B172B492B5708500203181C2B1D2B70
:10063800332B0130AD002D08D0074730AD002D0811
:10064800A0005008AE00AF012E08A1002F08A2009C
:1006580040300A128A118D230A128A11032956087A
:10066800AD002D08D0004730AD002D08A00050087F
:10067800AE00AF012E08A1002F08A20040300A12D8
:100688008A118D230A128A11032977301A06031D4D
:100698004E2B4F2B7F2B500856020318542B552BEB
:1006A800692B0130D0024730AD002D08A00050085A
:1006B800AE00AF012E08A1002F08A20040300A1298
:1006C8008A118D230A128A1103295708AD002D08B3
:1006D800D0004730AD002D08A0005008AE00AF0193
:1006E8002E08A1002F08A20040300A128A118D237B
:1006F8000A128A110329831203138C123308FF008C
:1007080032088A0031088400300E8300FE0E7E0E07
:10071800090083120313AC002130A3002308A600AC
:100728005E2C25302B0603199A2B9B2BA72B2B0805
:10073800A3002C0884002308831380000130A30041
:100748002308AC075E2CA7010130A007FF30200763
:1007580084000A128A117F240A128A11AB00A300AE
:10076800A4012408003A0319BA2B5E2C2308003A86
:100778000319702C643A0319C52B0D3A0319C52BBC
:100788005E2C2608840083130008A900840A000848
:10079800AA000230A3002308A607AA1FD42BD52B32
:1007A800DE2B0330A3002308A704A909AA09A90A74
:1007B8000319AA0AAB01AB0A2B08A3002307013EC1
:1007C80084000A128A117F240A128A11A4000A12CC
:1007D8008A117F240A128A11A50025082A02031DFE
:1007E800F72B240829020318FA2BFB2BFC2B062CC9
:1007F8000130A3002308AB0705302B06031D052C89
:10080800062CE02B2708033903190B2C0C2C172C6A
:100818002D30A3002C0884002308831380000130A6
:10082800A3002308AC072B08A3002308A800552C15
:100838000A30F8000030F9002808A3002307013E19
:1008480084000A128A117F240A128A11F0000A12FF
:100858008A117F240A128A11F1002A08F300290854
:10086800F2000A128A11E7240A128A117108FB00A1
:100878007008FA000A128A112B250A128A117808C0
:10088800303E83120313A4002408AB002B08A300F6
:100898002C0884002308831380000130A300230858
:1008A800AC07FF30A3002308A807280A031D5D2C06
:1008B8005E2C1C2C0130A007FF30200784000A1290
:1008C8008A117F240A128A11A3002308AB002B087F
:1008D800031D6F2C702C952B2C088400831380012A
:1008E8000800FF1B7F2C83137F1883170008840AD6
:1008F8000319FF0A080004308A000408840A8207E2
:100908000034013400340A34003464340034E834E8
:1009180003341034273453346534723476346F34E6
:10092800203431343A342034253464340034533498
:100938006534723476346F34203432343A342034A7
:1009480025346434003453346534723476346F3467
:10095800203433343A342034253464340034533466
:100968006534723476346F34203434343A34203475
:1009780025346434003453346534723476346F3437
:10098800203435343A342034253464340034533434
:100998006534723476346F34203436343A34203443
:1009A80025346434003450344F34543420343134D2
:1009B8003A342034003450344F34543420343234F0
:1009C8003A3420340034F501F60170087104031933
:1009D800EE2CEF2C262DF701F70AFD2C0130031021
:1009E800F00DF10DFF3E031DF32C0130F4007408E7
:1009F800F707F11F002D012DF22C01300310F50D22
:100A0800F60DFF3E031D022D71087302031D0E2D06
:100A180070087202031C112D122D192D7008F20294
:100A28007108031CF303F302751401300310F10C71
:100A3800F00CFF3E031D1A2D0130F702031D252D72
:100A4800262D012D7608F1007508F00008007808B9
:100A580079040319302D312D602DFD01FD0A3F2D3C
:100A680001300310F80DF90DFF3E031D352D01303F
:100A7800FC007C08FD07F91F422D432D342D790811
:100A88007B02031D492D78087A02031C4C2D4D2D3D
:100A9800532D7808FA027908031CFB03FB02013086
:100AA8000310F90CF80CFF3E031D542D0130FD0214
:100AB800031D5F2D602D432D7B08F9007A08F8008F
:100AC8000800F401812D7408700784007108031868
:100AD800710AFF000A128A1175240A128A119900F4
:100AE8000130F2007208F4070D30F300FB30F20019
:100AF800F20B7C2DF30B7C2D812D7408700784007C
:100B080071080318710A83120313FF000A128A116D
:100B180075240A128A11003A031D932D942D672D0E
:100B28000D3099000A30990008000A128A11EF2541
:100B38000A128A110A128A111F260A128A110A1227
:100B48008A1100260A128A1183160313A0002008AE
:100B580083120313D8000A128A11C7250A128A11B0
:100B6800153083160313A2004B30A100BD30A0003E
:100B7800A00BBC2DA10BBC2DA20BBC2DC32DB42DDD
:100B88000A128A1112288316031398161812831250
:100B9800031398171816831603138C16831203135E
:100BA8008C120C30831603139900803087000800DC
:100BB8007E088A007F0882000A128A11DC250A1240
:100BC8008A118000840A04087D0603190034FF0A8C
:100BD8000319FE0AE02D8316031385018601890196
:100BE800880183160317880189018312031385017D
:100BF80086018801890108008316031301148114F2
:100C0800011581128111A8308B00643083120313FF
:100C18008100643008005B345B345B345B345B34E4
:100C28005B343134DC3464008001840A040603191F
:100C380000340406182E831603130F168F160F1789
:060C4800E8308B000800FB
:04400E00D420FF3F7C
:00000001FF
