:060000000A128A110C280F
:10000800FE00030EFA000A08FB000A128A11872B69
:100018000A128A110F2883133A30FD000430FE00BB
:100028007730FF002E3084000A128A1159240A12F0
:100038008A11BA01BB01BC01BD01F001F101F20155
:10004800F301F401F501F601F701F80183010A1241
:100058008A112E280A128A1183240A128A110A1276
:100068008A118E240A128A110A128A1168240A1225
:100078008A1183120313AC002C08BE008B170B17D0
:100088007008031D48284928B428803083120313B8
:100098003302031C5028512853280130B302CD30B5
:1000A8003202031C582859285B280130B202D43088
:1000B800310203186028612865280130AC002C083B
:1000C800B107C830300203186A286B286F2801303E
:1000D800AC002C08B007BA302F02031C742875280E
:1000E80077280130AF02BE302E0203187C287D2805
:1000F80081280130AC002C08AE077F303306031D81
:1001080086288728A928CC303206031D8C288D28FC
:10011800A928D4303106031D92289328A928C8306D
:100128003006031D98289928A928B9302F06031DE1
:100138009E289F28A928BE302E06031DA428A5287E
:10014800A9280230AC002C08F0005B30831203139E
:10015800AD00E730AC00AC0BAF28AD0BAF2844289E
:1001680002307006031DB928BA284428C13083120A
:100178000313AC0033082C02F700F801031CF80342
:10018800D030AC0032082C02F500F601031CF6034F
:10019800C530AC0031082C02F300F401031CF40351
:1001A800A030AC0030082C02F100F201031CF2036D
:1001B800D430AC002F082C02BC00BD01031CBD03C9
:1001C800B730AC002E082C02BA00BB01031CBB03DD
:1001D800F81FEF28F028F528F709F809F70A031996
:1001E800F80AF61FF828F928FE28F509F609F50A8D
:1001F8000319F60AF41F012902290729F309F4094A
:10020800F30A0319F40AF21F0A290B291029F10924
:10021800F209F10A0319F20ABD1F13291429192931
:10022800BC09BD09BC0A0319BD0ABB1F1C291D292D
:100238002229BA09BB09BA0A0319BB0A7608803A07
:10024800AC007808803A2C02031D2C297708750227
:1002580003182F29302986297408803A831203133A
:10026800AC007808803A2C02031D3C2977087302F9
:1002780003183F29402986297208803A83120313FC
:10028800AC007808803A2C02031D4C2977087102CB
:1002980003184F2950298629831203133D08803AF1
:1002A800AC007808803A2C02031D5C2977083C02D0
:1002B80003185F2960298629831203133B08803AB3
:1002C800AC007808803A2C02031D6C2977083A02A2
:1002D80003186F2970298629C1308312031333024A
:1002E8000318772978297D290130AC002C08B30739
:1002F800A928C2303302031C82298329A928013086
:10030800B302A9287808803A83120313AC00760850
:10031800803A2C02031D9229750877020318952943
:100328009629EC297408803A83120313AC007608E6
:10033800803A2C02031DA229750873020318A52907
:10034800A629EC297208803A83120313AC007608B8
:10035800803A2C02031DB229750871020318B529C9
:10036800B629EC29831203133D08803AAC007608BD
:10037800803A2C02031DC22975083C020318C529BE
:10038800C629EC29831203133B08803AAC0076088F
:10039800803A2C02031DD22975083A020318D52980
:1003A800D629EC29D0308312031332020318DD2931
:1003B800DE29E3290130AC002C08B207A928D13086
:1003C8003202031CE829E929A9280130B202A92828
:1003D8007808803A83120313AC007408803A2C0220
:1003E800031DF829730877020318FB29FC29522AF0
:1003F8007608803A83120313AC007408803A2C0202
:10040800031D082A7308750203180B2A0C2A522A9E
:100418007208803A83120313AC007408803A2C02E5
:10042800031D182A7308710203181B2A1C2A522A52
:10043800831203133D08803AAC007408803A2C02FA
:10044800031D282A73083C0203182B2A2C2A522A37
:10045800831203133B08803AAC007408803A2C02DC
:10046800031D382A73083A0203183B2A3C2A522AE9
:10047800C5308312031331020318432A442A492A38
:100488000130AC002C08B107A928C6303102031C82
:100498004E2A4F2AA9280130B102A9287808803AA3
:1004A80083120313AC007208803A2C02031D5E2AE3
:1004B800710877020318612A622AB82A7608803AF6
:1004C80083120313AC007208803A2C02031D6E2AB3
:1004D800710875020318712A722AB82A7408803ABA
:1004E80083120313AC007208803A2C02031D7E2A83
:1004F800710873020318812A822AB82A8312031307
:100508003D08803AAC007208803A2C02031D8E2AFE
:1005180071083C020318912A922AB82A83120313FD
:100528003B08803AAC007208803A2C02031D9E2AD0
:1005380071083A020318A12AA22AB82AA030831205
:10054800031330020318A92AAA2AAF2A0130AC00E3
:100558002C08B007A928A1303002031CB42AB52AF8
:10056800A9280130B002A9287808803A8312031319
:10057800AC003D08803A2C02031DC42A3C087702CF
:100588000318C72AC82A1E2B7608803A8312031339
:10059800AC003D08803A2C02031DD42A3C087502A1
:1005A8000318D72AD82A1E2B7408803A83120313FB
:1005B800AC003D08803A2C02031DE42A3C08730273
:1005C8000318E72AE82A1E2B7208803A83120313BD
:1005D800AC003D08803A2C02031DF42A3C08710245
:1005E8000318F72AF82A1E2B831203133B08803AB4
:1005F800AC003D08803A2C02031D042B3C083A024B
:100608000318072B082B1E2BD430831203132F0239
:1006180003180F2B102B152B0130AC002C08AF073B
:10062800A928D5302F02031C1A2B1B2BA92801300F
:10063800AF02A9287808803A83120313AC003B085C
:10064800803A2C02031D2A2B3A08770203182D2B17
:100658002E2BA9287608803A83120313AC003B0896
:10066800803A2C02031D3A2B3A08750203183D2BD9
:100678003E2BA9287408803A83120313AC003B0868
:10068800803A2C02031D4A2B3A08730203184D2B9B
:100698004E2BA9287208803A83120313AC003B083A
:1006A800803A2C02031D5A2B3A08710203185D2B5D
:1006B8005E2BA928831203133D08803AAC003B083F
:1006C800803A2C02031D6A2B3A083C0203186D2B52
:1006D8006E2BA928B730831203132E020318752B2B
:1006E800762B7B2B0130AC002C08AE07A928B8303C
:1006F8002E02031C802B812BA9280130AE02A928C9
:100708000A128A110C280B1D8A2B8B2B382C0B11E3
:10071800831203133E0881000814A001A1019C2B39
:10072800013083120313A0070318A10A0030A107A0
:100738002108803AF90080307902031DA52B33087F
:100748002002031CA82BA92B942B83120313081037
:100758008814A201A301B82B013083120313A20746
:100768000318A30A0030A3072308803AF900803051
:100778007902031DC12B32082202031CC42BC52B8E
:10078800B02B8312031388100815A401A501D42BDC
:10079800013083120313A4070318A50A0030A50724
:1007A8002508803AF90080307902031DDD2B3108D5
:1007B8002402031CE02BE12BCC2B8312031308111A
:1007C8008815A601A701F02B013083120313A60791
:1007D8000318A70A0030A7072708803AF9008030D5
:1007E8007902031DF92B30082602031CFC2BFD2B74
:1007F800E82B8312031388110816A801A9010C2CF1
:10080800013083120313A8070318A90A0030A907A7
:100818002908803AF90080307902031D152C2F0829
:100828002802031C182C192C042C831203130812F9
:100838008816AA01AB01282C013083120313AA07DA
:100848000318AB0A0030AB072B08803AF900803058
:100858007902031D312C2E082A02031C342C352C56
:10086800202C8312031388127B088A007A0E8300D7
:10087800FE0E7E0E090004308A000408840A8207EE
:10088800003450344F345434203431343A34203422
:10089800003450344F345434203432343A34203411
:1008A80000347E088A007F0882000A128A115524C3
:1008B8000A128A118000840A04087D06031900348C
:1008C800FF0A0319FE0A592C831603130114811415
:1008D800011581128111A8308B0064308312031333
:1008E800810064300800B734D434A034C534D0341F
:1008F800C134B734D434A034C534D034C1348316A9
:1009080003138801831603178801890183120313CF
:1009180088010800831603130F168F160F17E83087
:040928008B00080038
:04400E00D420FF3F7C
:00000001FF
