:060000000A128A110C280F
:10000800FE00030EF4000A08F5000A128A111628E9
:100018000A128A110F28F701F801F90183010A125F
:100028008A118028831203130C1F1B281C283628CA
:100038000C1300300A128A119D200A128A11F3004B
:100048007308F900C730F3002928F30B28282C2857
:100058002D2801300A128A119D200A128A11F300F4
:100068007308F800831203138C1D3B283C2854287E
:100078007708031D402841284A2879080A128A115E
:10008800FB200A128A11F701F70A512878080A1288
:100098008A11FB200A128A11F701831203138C11AB
:1000A8008C1E5728582859288C1275088A00740EF7
:1000B8008300FE0E7E0E0900831203131F139F1781
:1000C800831603131F129F12C330831203139F0555
:1000D800831603139F13831203131F140C13831621
:1000E80003130C170B178B172130F600F60B7A2821
:1000F800831203139F1408000A128A11E1200A12BE
:100108008A110A128A11F3200A128A110A128A1114
:1001180060200A128A110A128A11CE200A128A1144
:100128000A128A11B7200A128A1199280A128A110A
:100138000C28F1007108F000F00DF00D8312031384
:100148001F087006C33970069F001E08F00070086B
:10015800F2004230F000F00BAF28000083120313C6
:100168009F14720808008B170B17831203138C1146
:10017800831603138C1585168712831203139401B3
:1001880014109410141594119416831603139401E3
:100198008715080083160313981618128312031381
:1001A80098171816831603138C16831203138C12D0
:1001B8000C308316031399000800233083160313A9
:1001C800850086018801033083160317880089019A
:1001D80083120313860187018801890108008316A9
:1001E80003130F168F160F17E8308B000800F00066
:0A01F800700883120313930008003F
:04400E00D420FF3F7C
:00000001FF
