:060000000A128A110C280F
:10000800FE00030EF4000A08F5000A128A111628E9
:100018000A128A110F28F701F801F90183010A125F
:100028008A117E28831203130C1F1B281C283428CE
:100038000C1300300A128A119B200A128A11F3004D
:100048007308F9000630F300F30B2828000001308C
:100058000A128A119B200A128A11F3007308F80009
:10006800831203138C1D39283A2852287708031D58
:100078003E283F28482879080A128A11F9200A12CE
:100088008A11F701F70A4F2878080A128A11F9200D
:100098000A128A11F701831203138C118C1E55283A
:1000A800562857288C1275088A00740E8300FE0E95
:1000B8007E0E0900831203131F139F178316031361
:1000C8001F129F12C330831203139F058316031355
:1000D8009F13831203131F140C13831603130C1797
:1000E8000B178B172130F600F60B782883120313B1
:1000F8009F1408000A128A11DF200A128A110A12B4
:100108008A11F1200A128A110A128A115E200A1233
:100118008A110A128A11CC200A128A110A128A112B
:10012800B5200A128A1197280A128A110C28F100A0
:100138007108F000F00DF00D831203131F0870060C
:10014800C33970069F001E08F0007008F2004230A4
:10015800F000F00BAD280000831203139F147208FF
:1001680008008B170B17831203138C1183160313C4
:100178008C1585168712831203139401141094109A
:100188001415941194168316031394018715080007
:100198008316031398161812831203139817181648
:1001A800831603138C16831203138C120C308316D8
:1001B8000313990008002330831603138500860172
:1001C80088010330831603178800890183120313FB
:1001D80086018701880189010800831603130F1619
:1001E8008F160F17E8308B000800F0007008831294
:0601F80003139300080050
:04400E00D420FF3F7C
:00000001FF
